:020000040800F2
:1000000000040020C101000801DC000801DC000838
:100010005163000801DC000801DC000801DC000875
:1000200001DC000801DC000801DC0008C100010857
:1000300001DC000801DC000801DC00083187010850
:1000400001DC000861470108F14801084149010845
:1000500001DC000801DC0008A1440108F1440108AA
:100060004145010891450108E1450108F1360108C3
:100070004137010891370108E1370108313801089B
:1000800081380108D1380108E1410108714B0108AC
:10009000E14B0108914C0108414D0108314601082E
:1000A00001DC000801DC00088180010801DC000897
:1000B000F18201083183010871830108F1620108AE
:1000C0003164010801DC000801DC000801DC0008E3
:1000D00001DC000801DC000801DC0008F1870108F0
:1000E000C1460108B14701080148010801DC0008C8
:1000F00001DC000801DC000801DC000821390108EE
:1001000001DC0008C1520108B183010801DC0008CC
:1001100001DC000801DC00084180010801DC000866
:1001200071390108C1390108113A0108613A010821
:10013000B13A010801DC00085148010801DC00085F
:1001400001DC000801DC000801DC0008317801084E
:10015000013B0108513B0108A13B010801DC0008FB
:1001600001DC000801DC000801DC000801DC0008FB
:10017000A148010801DC0008512B000801DC00083F
:1001800001DC000801DC000801DC000801DC0008DB
:1001900001DC000801DC000801DC000801DC0008CB
:1001A00001DC000801DC000801DC000801DC0008BB
:1001B00001DC000801DC000801DC000801DC0008AB
:1001C00072B62E4880F3098840F20000CCF200009D
:1001D0004EF63471CEF20001086040F20000C0F229
:1001E000F0004EF68851CEF2000108604FF000009A
:1001F000E1EE100A4EF63C71CEF2000108600620D6
:1002000080F31488BFF36F8F18F03AFC4FF055302D
:100210001B491C4A91423CBF41F8040BFAE71A49BA
:10022000164A91423CBF41F8040BFAE71749184AB5
:10023000184B9A423EBF51F8040B42F8040BF8E702
:1002400000201549154A91423CBF41F8040BFAE7DA
:100250000DF0BEFC124C134DAC4203DA54F8041BF3
:100260008847F9E702F00CFA0F4C104DAC4203DA64
:1002700054F8041B8847F9E70DF0BABC00080020C9
:100280000000002000040020000400208820020854
:10029000000800200C19002010190020E077012030
:1002A000C0010008C0010008C0010008C00100082A
:1002B0002DE9F04F2DED108AC1F80CD0D0F80CD0FC
:1002C000BDEC108ABDE8F08F0DF0DAFD0EF078FE7F
:1002D000002383F311882846A04700200EF0A8FBD6
:1002E0000EF056FE0DF0ACFD0EF0CAF90DF0C8FD93
:1002F0000EF066FE00DFFEE70000000000000000D8
:100300002DE9F843544B80461A68544882422DED3B
:10031000028B1BD052490B68DA0405D40A6842F4F8
:1003200080530B60012000E000204E4A4E491160CE
:1003300013684A4A934208D147490B6030B1484894
:10034000036823F48052026000E0FEE798ED018A22
:10035000B5EE408A0021F1EE10FAC8F81C10C8F87A
:100360001810C8F81410C8F81010C8F82810C8F8E9
:100370002410C8F8201029D0DFED3C7A28EE270A97
:1003800010EE100A00F0D8FF044618EE100A0D46D1
:1003900000F0D2FF0646B8F800000F4600F0BAFFA2
:1003A0002BA3D3E9002301F04DF902460B4630465A
:1003B000394600F063FE02460B462046294601F00E
:1003C00041F901F055FAA8F82C0001E0A8F82C102A
:1003D00098ED028AB5EE408AF1EE10FA26D0B8F810
:1003E00000904FEA092000F095FF044618EE100A2D
:1003F0000D4600F0A1FF16A3D3E9002300F0F8FF9B
:10040000064648460F4600F085FF02460B4630463A
:10041000394600F033FE02460B462046294601F0DD
:1004200011F901F025FAA8F82E0002E00020A8F842
:100430002E00B8F800204FF47A73B2FBF3F1A8F85D
:100440003010BDEC028BBDE8F88300BFAFF3008035
:100450001F85EB51B81E194010190020CDB5E8B525
:100460003038024000300240C2A507F4000080434B
:100470002DE9F04F9BB083461992A94A1891A948DB
:100480001168814200D0FEE79E6AB3F80CC09F69F4
:100490009A8DD98D039603261C6A5D6A059706928C
:1004A00006FB0CF74FEA8C0206264FEA4C000B9134
:1004B0000E97052106FB0CF70F9207220294049574
:1004C0000D90119701FB0CF04FEACC0602FB0CF1EA
:1004D00000271D695C69D3F81CA010901291179633
:1004E0000197188EDDF80490814580F20A818E48CC
:1004F0009BF800601BF80C7010F80690C25DA144D8
:100500008419511994F8008194F8002201EB4808ED
:10051000CDF81C80DDF834801BF80860855DC719B4
:10052000A9180E9A97F800411BF8022097F800725C
:1005300001EB4405815C0895CC1981190F9E91F857
:10054000008191F8007204EB48081BF80640CDF8D2
:1005500024808218055D92F8006192F80022E91962
:1005600001EB460505EB0807DDF8408015971BF801
:1005700008700A950419C15D94F8005194F800427E
:10058000DDF81C808E1806EB4501119D089A1BF8BA
:1005900005508E18C719425D1696161997F8002156
:1005A00006EB42029044CDF85080129C97F80072FE
:1005B0001BF804604519845DE41995F8007195F8FD
:1005C0000052801904EB47044FF01C0804EB0907A4
:1005D00090F80061139708FB09AADDF81C800C94C1
:1005E0000AEB0209152705EB460490F8005207FBB9
:1005F0000890099FDDF820900A2606FB070A0F27BE
:1006000007FB09A04FF00308DDF8289008FB010064
:100610004FF0060A0AFB0900009015984FF03009C8
:1006200009FB00FADDF858902E2000FB09A0824655
:100630000598824413984FF0240909FB00AA1498E6
:100640004FF02A0909FB00AA0898DDF8249008FB5E
:1006500000F8062000FB0988DDF81C9008EB090073
:1006600007FB01010A9F0C98DDF8009006FB0718B4
:100670001C2606FB008115270B9807FB021205922A
:10068000A9F5003868B1029E049FCDF8108006EBF2
:100690000801CE1B46434FF4807296FBF2F00290A5
:1006A0008046069961B1039E08FB01F8C1F5807789
:1006B00006FB07894FF4807299FBF2F003908046A5
:1006C000199901FB08F7002F02DD0837381103E004
:1006D000083F102697FBF6F047F6BC72019E1349BF
:1006E000189FDDF85C809042A8BF1046DA897243FB
:1006F0008842A8BF0146013627F81210C34401966C
:10070000EFE61D615C61029D059C1D629C61039D7D
:10071000049CC3F81CA05C629D621BB0BDE8F08F16
:1007200010190020CDB5E8B5000800204480FFFF77
:100730002DE9F04FA1B0C74C1F92C74A1E91116816
:10074000A14200D0FEE79F6A9A69998DDC8D0497DB
:100750009F89069207910F940322052106241D6AA2
:100760005E6A03957A4379437C43129214911594FF
:10077000072209210A24794305964FEA47084FEAE0
:1007800087097A434FEAC70A7C431E695D69D3F83B
:100790001CB01891CDF84480CDF84C901692CDF84D
:1007A0005CA01D94002102911A8E0299914280F260
:1007B0005981AA4A047812F80490A944C55D111918
:1007C00012F8058091F8004191F800A2464406EB2A
:1007D0004406119C0896045D5519165D95F800C1F4
:1007E00095F8005206EB0A0808EB4C0ADDF8488041
:1007F000CDF824A010F80810DDF84C80565C1419D0
:1008000006EB050A10F8085094F800C1565D94F8FC
:10081000004251180AEB4C0C361991F800A1149CB7
:1008200091F80012CDF828C006EB4A08065DCDF815
:100830002C80945DDDF85480551904EB010A95F87D
:10084000004195F800520AEB44010C9110F8081091
:100850009619545C641996F8005104EB45040D9404
:10086000169D96F80062DDF824A0DDF85C80A444B3
:10087000445DCDF86CC0155D5118AD1991F800615B
:1008800091F8001205EB460505EB0A060E9510F8E7
:1008900008501C961419565DDDF860A0711894F884
:1008A000006194F8004201EB460C08990CEB01063C
:1008B0001A9610F80A605519915D9219091995F860
:1008C000004192F8006195F8005201EB44012D249B
:1008D00001EB090804FB09BB10910899CDF864806D
:1008E0000BEB0C09DDF8288005EB460592F8006259
:1008F000242202FB019A152404FB08A9DDF824A098
:100900000C994FF01C0B0BFB0A994FF00A08DDF80D
:100910002CA008FB01994FF00F0B0E990BFB0A99C5
:100920004FF00308DDF834A008FB01994FF0060BE7
:100930000BFB0A99CDF80490DDF82CA00C994FF030
:100940004B0B51440BFB01F91B994FF0490A0AFB71
:10095000019B0699DDF868900BEB010A4FF03F0B05
:100960001C990BFB09AA4FF0450BDDF864900BFBBB
:1009700001AA4FF0370B0BFB09ABDDF824A00A9955
:1009800008FB0AF84FF00609DDF820A009FB0188F2
:100990000C99D0444FF00F09DDF82CA009FB018819
:1009A0000A21DDF8389001FB0A884FF01C0A0D99E6
:1009B0000AFB098804FB018A109C0F994FF02D094E
:1009C00009FB04A8DDF804A002FB0C820692AAF53C
:1009D0007A3971B1039C0599CDF8149004EB0902A2
:1009E000541A0F9A4FF48071544394FBF1F403941A
:1009F000A146079961B1049CC1F5807209FB01FC15
:100A000004FB02C94FF4807199FBF1F20492914604
:100A10001F9C04FB09F1002902DD10314C1103E099
:100A20001039202291FBF2F447F6BC718C42A8BF2A
:100A30000C46DA890299DDF874804A4308498C42F1
:100A4000A8BF21461E9C24F81210029A4044511C53
:100A5000A9E600BFCDB5E8B51019002000080020B8
:100A60004480FFFF05981E615D61039E069D049C06
:100A700058629D61C3F81CB01E629C62104621B092
:100A8000BDE8F08F2DE9F04F95B0994C1392994A3B
:100A900012911168A14200D0FEE75E6A1D6A9F6A4A
:100AA0009A69998DB3F82E800C964FF00009D3F80F
:100AB00010C05E69D3F81CB00195029709920A91A3
:100AC000CDF83480CDF80C908B4904780D190C5D6D
:100AD00095F8007295F8008106EB070A067ACDF8C2
:100AE0002CA08F198E5D97F8002202EB4805AC44CC
:100AF000057C97F80081CDF810C04A194D5D92F839
:100B0000009292F8002109EB040A0AEB480C90F8D5
:100B100018A090F82090CDF814C001EB0A0494F8C6
:100B2000007294F80041BF1907EB420801EB09027B
:100B3000CDF8188092F8006292F80021771907EB3F
:100B4000440606EB080C90F8288011F80A70079606
:100B500001EB0805CDF840C095F8004295F800512A
:100B6000E619059F06EB4204E619119690F83060ED
:100B700008948C1911F8097094F80022D219049F76
:100B800002EB4502BD180F9590F8385011F8089007
:100B900094F80041DDF82C808E5D4F1997F800A283
:100BA00097F800710AEB090C0CEB4404DDF818A06F
:100BB00011F805C000941C2505FB082944440A21AE
:100BC000DDF8148001FB0A9906EB4706DDF820A04A
:100BD0000F2707FB0899032101FB0A99DDF81CA0E8
:100BE0004FF0060808FB0A99DDF810A0152101FB5B
:100BF0000A99CB44DDF84490CDF82CB04FF02E0A82
:100C00000AFB09FADDF840904FF0300B0BFB09AA04
:100C10004FF0240B0BFB04A90F9C4FF02A0A0AFB90
:100C2000049B099CDDF81890DDF810A0A344059CF6
:100C300008FB09A8DDF820A04FF0030909FB048890
:100C4000079C07FB0A890A2707FB0498DDF8009038
:100C5000DDF82CA00C9F05FB098501FB02520199D0
:100C60000992AAF500328C180D99DDF82880E51B51
:100C70004D434FF4807195FBF1F40194019F44467C
:100C80007C43029FC8EB010507FB054595FBF1F18D
:100C90000291139C6143002902DD0831091103E030
:100CA0000839102791FBF7F147F6BC75134C129FDA
:100CB0000C92A942A8BF2946039DA142B8BF214674
:100CC00079530C354030C02D03957FF4FDAE099863
:100CD000019C029D9861C3F810C05E61C3F81CB00E
:100CE0001C625A629D62102015B0BDE8F08F00BFF3
:100CF000CDB5E8B510190020000800204480FFFFA2
:100D00002DE9F04FA1B084461F92BE4A1E91BE4805
:100D10001168814200D0FEE79E6A9F6905969E8910
:100D2000D98D01967000079703277E431190019893
:100D30009A8D0F9112960521019E08924843B200A8
:100D40001490019E01980199139206277E43072271
:100D5000C700514315961797019E019F1C6A5D6A53
:100D6000169109220A2156434F434FF0000804947C
:100D700006955C691D69D3F81CB018961D97CDF8CF
:100D80000C80188EDDF80C90814580F25A819F49C5
:100D90009CF80000DDF804900F181CF8096097F823
:100DA00000A297F80021085CA2448C198E5D94F88B
:100DB000008294F80041454405EB4207119D0997D4
:100DC0001CF805504A194D5D92F8007292F80081A6
:100DD0003F18129807EB44091CF80040CDF8289002
:100DE00008190C5D90F8007290F80001BF1907EB2C
:100DF0004809DDF84C80CDF82C901CF8089001EBE8
:100E00000902CDF8089092F8006292F80021771953
:100E1000149E1CF80690159E07EB400801EB090094
:100E2000CDF8308090F8005290F800012F1907EBB0
:100E300042081CF80670029DCDF83480CA194E5D38
:100E400092F80042A41904EB40050295DDF82C80CD
:100E5000169E92F80021CF5DA844CDF86C801CF856
:100E6000068011F80950DDF8609001EB080011F8D8
:100E7000088090F8004290F8000166190A9D06EB80
:100E80004204179A0E9466191C961CF802608C197D
:100E90008E5D94F8002294F80041D519099F05EB66
:100EA0004002D5191A951CF809504F194D5D97F855
:100EB000000297F80071404400EB44002D2100EB44
:100EC0000A0401FB0ABB1090099819940BEB020A63
:100ED00006EB470424210B9F01FB00A94FF01508E6
:100EE000DDF828A00D9808FB07964FF01C0B0BFBB4
:100EF0000A69DDF830800A2606FB009A0F27DDF824
:100F0000389007FB08AB4FF0030808FB09BADDF87F
:100F100008B0062000FB0BA9CDF80090DDF834A046
:100F2000DDF830B04FF04B090AEB0B0009FB00FA7B
:100F30001B984FF0490B0BFB00A9079809EB000A1F
:100F4000DDF868901C984FF03F0B0BFB09AA4FF09F
:100F5000450BDDF864900BFB00AA4FF0370B0BFB41
:100F600009ABDDF828A00B9808FB0AF84FF006093A
:100F7000DDF824A009FB00880D9808EB0A0907FB9F
:100F800000980C9FDDF83890029806FB07864FF01A
:100F90001C0A0AFB0968152707FB008610980F9F9B
:100FA0004FF02D0909FB006A01FB02A2DDF800A049
:100FB0000792AAF57A386FB10499069ECDF8188089
:100FC00001EB0800811B79434FF4807291FBF2F72B
:100FD0000497B846089860B1059908FB00F8C0F579
:100FE000807601FB06894FF4807299FBF2F7059732
:100FF000B8461F9800FB08F6002E09DD1036771161
:101000000AE000BF10190020CDB5E8B500080020A7
:10101000103E202196FBF1F7039ED8891049DDF898
:10102000748047F6BC729742A8BF17468F42A8BF8C
:10103000394670431E9F721C27F81010C444039257
:101040009FE65C61079C049A9C61059E069C1D615D
:10105000C3F81CB01A625C629E6221B0BDE8F08FDA
:101060004480FFFFAFF3008000000000000000009C
:1010700081F0004102E000BF83F0004330B54FEA49
:1010800041044FEA430594EA050F08BF90EA020FB6
:101090001FBF54EA000C55EA020C7FEA645C7FEA49
:1010A000655C00F0E2804FEA5454D4EB5555B8BF6C
:1010B0006D420CDD2C4480EA020281EA030382EADD
:1010C000000083EA010180EA020281EA0303362D6F
:1010D00088BF30BD11F0004F4FEA01314FF4801C42
:1010E0004CEA113102D0404261EB410113F0004F54
:1010F0004FEA03334CEA133302D0524263EB43030B
:1011000094EA050F00F0A780A4F10104D5F1200EA8
:101110000DDB02FA0EFC22FA05F2801841F1000103
:1011200003FA0EF2801843FA05F359410EE0A5F1D7
:1011300020050EF1200E012A03FA0EFC28BF4CF008
:10114000020C43FA05F3C01851EBE37101F00045BE
:1011500007D54FF0000EDCF1000C7EEB00006EEBCB
:101160000101B1F5801F1BD3B1F5001F0CD3490855
:101170005FEA30004FEA3C0C04F101044FEA4452AC
:1011800012F5800F80F09A80BCF1004F08BF5FEA33
:10119000500C50F1000041EB045141EA050130BD13
:1011A0005FEA4C0C404141EB010111F4801FA4F1B6
:1011B0000104E9D191F0000F04BF01460020B1FA0B
:1011C00081F308BF2033A3F10B03B3F120020CDA43
:1011D0000C3208DD02F1140CC2F10C0201FA0CF021
:1011E00021FA02F10CE002F11402D8BFC2F1200C86
:1011F00001FA02F120FA0CFCDCBF41EA0C0190403C
:10120000E41AA2BF01EB0451294330BD6FEA040484
:101210001F3C1CDA0C340EDC04F11404C4F120026F
:1012200020FA04F001FA02F340EA030021FA04F381
:1012300045EA030130BDC4F10C04C4F1200220FAD8
:1012400002F001FA04F340EA0300294630BD21FA16
:1012500004F0294630BD94F0000F83F4801306BFDC
:1012600081F480110134013D4EE77FEA645C18BFD0
:101270007FEA655C29D094EA050F08BF90EA020F67
:1012800005D054EA000C04BF1946104630BD91EA5F
:10129000030F1EBF0021002030BD5FEA545C05D162
:1012A0004000494128BF41F0004130BD14F58004A1
:1012B0003CBF01F5801130BD01F0004545F0FE4115
:1012C00041F470014FF0000030BD7FEA645C1ABF4A
:1012D000194610467FEA655C1CBF0B46024650EA81
:1012E000013406BF52EA033591EA030F41F40021AD
:1012F00030BD00BF90F0000F04BF0021704730B533
:101300004FF4806404F132044FF000054FF0000107
:1013100050E700BF90F0000F04BF0021704730B5C8
:101320004FF4806404F1320410F0004548BF40429D
:101330004FF000013EE700BF42004FEAE2014FEAF2
:1013400031014FEA02701FBF12F07F4393F07F4FCD
:1013500081F06051704732F07F4208BF704793F0D0
:101360007F4F04BF41F40021704730B54FF46074E3
:1013700001F0004521F000411CE700BF50EA0102E6
:1013800008BF704730B54FF000050AE050EA01028F
:1013900008BF704730B511F0004502D5404261EBFF
:1013A00041014FF4806404F132045FEA915C3FF440
:1013B000D8AE4FF003025FEADC0C18BF03325FEADD
:1013C000DC0C18BF033202EBDC02C2F1200300FA8E
:1013D00003FC20FA02F001FA03FE40EA0E0021FAB3
:1013E00002F11444BDE600BF000000000000000050
:1013F00070B54FF0FF0C4CF4E06C1CEA11541DBFAB
:101400001CEA135594EA0C0F95EA0C0F00F0DEF875
:101410002C4481EA030621EA4C5123EA4C5350EA5A
:10142000013518BF52EA033541F4801143F48013AB
:1014300038D0A0FB02CE4FF00005E1FB02E506F03C
:101440000042E0FB03E54FF00006E1FB03569CF091
:10145000000F18BF4EF0010EA4F1FF04B6F5007F97
:1014600064F5407404D25FEA4E0E6D4146EB060609
:1014700042EAC62141EA55514FEAC52040EA5E5092
:101480004FEACE2EB4F1FD0C88BFBCF5E06F1ED83C
:10149000BEF1004F08BF5FEA500E50F1000041EB73
:1014A000045170BD06F0004646EA010140EA020020
:1014B00081EA0301B4EB5C04C2BFD4EB0C0541EA42
:1014C000045170BD41F480114FF0000E013C00F357
:1014D000AB8014F1360FDEBF002001F0004170BD7B
:1014E000C4F10004203C35DA0C341BDC04F1140494
:1014F000C4F1200500FA05F320FA04F001FA05F220
:1015000040EA020001F0004221F0004110EBD370EC
:1015100021FA04F642EB06015EEA430E08BF20EA18
:10152000D37070BDC4F10C04C4F1200500FA04F3BB
:1015300020FA05F001FA04F240EA020001F000414D
:1015400010EBD37041F100015EEA430E08BF20EAC0
:10155000D37070BDC4F1200500FA05F24EEA020E08
:1015600020FA04F301FA05F243EA020321FA04F037
:1015700001F0004121FA04F220EA020000EBD370EE
:101580005EEA430E08BF20EAD37070BD94F0000FEE
:101590000FD101F00046400041EB010111F4801F22
:1015A00008BF013CF7D041EA060195F0000F18BFD3
:1015B000704703F00046520043EB030313F4801F0F
:1015C00008BF013DF7D043EA0603704794EA0C0FC9
:1015D0000CEA135518BF95EA0C0F0CD050EA4106DF
:1015E00018BF52EA4306D1D181EA030101F000415C
:1015F0004FF0000070BD50EA410606BF1046194684
:1016000052EA430619D094EA0C0F02D150EA01368F
:1016100013D195EA0C0F05D152EA03361CBF1046D0
:1016200019460AD181EA030101F0004141F0FE416F
:1016300041F470014FF0000070BD41F0FE4141F4F3
:10164000780170BD70B54FF0FF0C4CF4E06C1CEAF3
:1016500011541DBF1CEA135594EA0C0F95EA0C0FA8
:1016600000F0A7F8A4EB050481EA030E52EA033563
:101670004FEA013100F088804FEA03334FF0805584
:1016800045EA131343EA12634FEA022245EA1115B1
:1016900045EA10654FEA00260EF000419D4208BF62
:1016A000964244F1FD0404F5407402D25B084FEA0F
:1016B0003202B61A65EB03055B084FEA32024FF4BB
:1016C00080104FF4002CB6EB020E75EB030E22BF18
:1016D000B61A754640EA0C005B084FEA3202B6EBD8
:1016E000020E75EB030E22BFB61A754640EA5C0087
:1016F0005B084FEA3202B6EB020E75EB030E22BF17
:10170000B61A754640EA9C005B084FEA3202B6EB17
:10171000020E75EB030E22BFB61A754640EADC00D6
:1017200055EA060E18D04FEA051545EA16754FEA38
:1017300006164FEAC30343EA52734FEAC2025FEA56
:101740001C1CC0D111F4801F0BD141EA00014FF0E5
:1017500000004FF0004CB6E711F4801F04BF0143B6
:101760000020B4F1FD0C88BFBCF5E06F3FF6AFAED2
:10177000B5EB030C04BFB6EB020C5FEA500C50F162
:10178000000041EB045170BD0EF0004E4EEA1131E5
:1017900014EB5C04C2BFD4EB0C0541EA045170BDEC
:1017A00041F480114FF0000E013C90E645EA060E30
:1017B0008DE60CEA135594EA0C0F08BF95EA0C0F5E
:1017C0003FF43BAF94EA0C0F0AD150EA01347FF4A6
:1017D00034AF95EA0C0F7FF425AF104619462CE77D
:1017E00095EA0C0F06D152EA03353FF4FDAE1046E0
:1017F000194622E750EA410618BF52EA43067FF431
:10180000C5AE50EA41047FF40DAF52EA43057FF4C0
:10181000EBAE12E700000000000000000000000036
:101820004FEA410212F5001215D211D56FF4787308
:10183000B3EB625212D94FEAC12343F0004343EAAB
:10184000505311F0004F23FA02F018BF4042704786
:101850004FF00000704750EA013005D111F0004010
:1018600008BF6FF0004070474FF00000704700BFA6
:101870004A0011D212F5001211D20DD56FF478730F
:10188000B3EB62520ED44FEAC12343F0004343EA64
:10189000505323FA02F070474FF00000704750EAAF
:1018A000013002D14FF0FF3070474FF00000704719
:1018B00080F0004002E000BF81F0004142001FBF05
:1018C0005FEA410392EA030F7FEA226C7FEA236C0E
:1018D0006AD04FEA1262D2EB1363C1BFD218414003
:1018E00048404140B8BF5B42192B88BF704710F099
:1018F000004F40F4000020F07F4018BF404211F03C
:10190000004F41F4000121F07F4118BF494292EAA3
:10191000030F3FD0A2F1010241FA03FC10EB0C00CF
:10192000C3F1200301FA03F100F0004302D549425C
:1019300060EB4000B0F5000F13D3B0F1807F06D309
:1019400040084FEA310102F10102FE2A51D2B1F101
:10195000004F40EBC25008BF20F0010040EA0300F6
:101960007047490040EB000010F4000FA2F10102A3
:10197000EDD1B0FA80FCACF1080CB2EB0C0200FA2D
:101980000CF0AABF00EBC25052421843BCBFD0407B
:101990001843704792F0000F81F4000106BF80F4F5
:1019A00000000132013BB5E74FEA41037FEA226CB8
:1019B00018BF7FEA236C21D092EA030F04D092F083
:1019C000000F08BF0846704790EA010F1CBF0020B7
:1019D000704712F07F4F04D1400028BF40F0004014
:1019E000704712F100723CBF00F50000704700F034
:1019F000004343F0FE4040F4000070477FEA22625B
:101A000016BF08467FEA23630146420206BF5FEA2B
:101A1000412390EA010F40F4800070474FF000032B
:101A200004E000BF10F0004348BF40425FEA000CF2
:101A300008BF704743F0964301464FF000001CE09A
:101A400050EA010208BF70474FF000030AE000BFF0
:101A500050EA010208BF704711F0004302D540422E
:101A600061EB41015FEA010C02BF844601460020A0
:101A700043F0B64308BFA3F18053A3F50003BCFABB
:101A80008CF2083AA3EBC25310DB01FA02FC634468
:101A900000FA02FCC2F12002BCF1004F20FA02F26F
:101AA00043EB020008BF20F00100704702F1200262
:101AB00001FA02FCC2F1200250EA4C0021FA02F2C3
:101AC00043EB020008BF20EADC7070470000000012
:101AD00053B94AB9002908BF00281CBF4FF0FF3195
:101AE0004FF0FF3000F074B9ADF1080C6DE904CE91
:101AF00000F006F8DDF804E0DDE9022304B07047E9
:101B00002DE9F047089E04468846002B4BD18A42B7
:101B1000154667D9B2FA82F24AB1C2F1200701FA3A
:101B200002F320FA07F7954047EA030894404FEA8A
:101B3000154E230CB8FBFEF71FFA85FC0EFB178829
:101B400043EA084307FB0CF1994209D9EB1807F166
:101B5000FF3080F01B81994240F21881023F2B44F4
:101B60005B1AA4B2B3FBFEF00EFB103344EA03444D
:101B700000FB0CFCA44509D92C1900F1FF3380F0BF
:101B80000781A44540F2048102382C4440EA074012
:101B9000A4EB0C0400271EB1D4400023C6E9004387
:101BA0003946BDE8F0878B4209D9002E00F0EB8062
:101BB0000027C6E9000138463946BDE8F087B3FA88
:101BC00083F7002F47D18B4202D3824200F2FA8082
:101BD000841A61EB030301209846002EE0D0C6E989
:101BE0000048DDE702B9FFDEB2FA82F2002A40F0D7
:101BF0008F80491B4FEA154E1FFA85F80127B1FB6C
:101C0000FEFC230C0EFB1C1143EA014308FB0CF104
:101C1000994207D9EB180CF1FF3002D2994200F239
:101C2000CD808446591AA3B2B1FBFEF00EFB10140E
:101C300043EA044408FB00F8A04507D92C1900F139
:101C4000FF3302D2A04500F2B6801846A4EB080488
:101C500040EA0C409FE7C7F1200CBB4022FA0CFE83
:101C60004EEA030E01FA07F420FA0CF521FA0CF300
:101C70004FEA1E482543B3FBF8F92C0C08FB193337
:101C80001FFA8EFA44EA034309FB0AF49C4202FA63
:101C900007F200FA07F10BD91EEB030309F1FF303D
:101CA00080F087809C4240F28480A9F1020973444D
:101CB0001B1BADB2B3FBF8F008FB103345EA03443D
:101CC00000FB0AFAA24508D91EEB040400F1FF3319
:101CD0006BD2A24569D90238744440EA0940A0FB9E
:101CE0000289A4EB0A044C45C2464B4654D351D05A
:101CF000002E69D0B1EB0A0564EB030404FA0CFC76
:101D0000FD40FC404CEA0505C6E90054002747E7C2
:101D1000C2F1200320FA03F7954001FA02F021FAFC
:101D200003F34FEA154E3843010CB3FBFEF71FFADD
:101D300085F80EFB173341EA034107FB08F38B429A
:101D400004FA02F407D9691807F1FF3C2FD28B423D
:101D50002DD9023F2944CB1A81B2B3FBFEF00EFB12
:101D6000103341EA034100FB08F38B4207D969189D
:101D700000F1FF3C17D28B4215D902382944C91A09
:101D800040EA07473BE73746304609E70746E7E6BC
:101D90001846FBE64145ABD2B8EB020A69EB0E02EE
:101DA00001381346A4E76046E9E7184695E7674619
:101DB000D1E781467CE702382C4447E7ACF1020CBE
:101DC0002B442FE7384608E73746E9E600000000D5
:101DD000704700BF0000000000000000000000008D
:101DE000844641EA000313F003036DD1403A41D326
:101DF00051F8043B40F8043B51F8043B40F8043BE5
:101E000051F8043B40F8043B51F8043B40F8043BD4
:101E100051F8043B40F8043B51F8043B40F8043BC4
:101E200051F8043B40F8043B51F8043B40F8043BB4
:101E300051F8043B40F8043B51F8043B40F8043BA4
:101E400051F8043B40F8043B51F8043B40F8043B94
:101E500051F8043B40F8043B51F8043B40F8043B84
:101E600051F8043B40F8043B51F8043B40F8043B74
:101E7000403ABDD2303211D351F8043B40F8043B14
:101E800051F8043B40F8043B51F8043B40F8043B54
:101E900051F8043B40F8043B103AEDD20C3205D324
:101EA00051F8043B40F8043B043AF9D2043208D01C
:101EB000D2071CBF11F8013B00F8013B01D30B888E
:101EC00003806046704700BF082A13D38B078DD06C
:101ED00010F003038AD0C3F10403D21ADB071CBF3E
:101EE00011F8013B00F8013B80D331F8023B20F8A8
:101EF000023B7BE7043AD9D3013A11F8013B00F8E1
:101F0000013BF9D20B7803704B7843708B78837068
:101F10006046704700000000000000000000000064
:101F2000A2EB0300704700BF02780B78012A28BF9C
:101F30009A42F5D16DE9044540EA0104CDE9026712
:101F40006FF0000C4FEA447212B380EA010414F0FF
:101F5000070F6AD100F0070420F0070004F0030522
:101F600021F007014FEAC505F0E8042314F0040F3F
:101F7000F1E804670CFA05F462EA040266EA040672
:101F80000AD063EA0403624667EA0407664603E090
:101F9000F0E80423F1E8046782FA4CF582EA0604CB
:101FA000A4FA8CF46CBB83FA4CF583EA0705A5FA16
:101FB0008CF595B950E9022351E9026782FA4CF594
:101FC00082EA0604A4FA8CF483FA4CF583EA070546
:101FD000A5FA8CF52543DBD09CB92DBAB5FA85F46A
:101FE00024F0070427FA04F1DDE9026723FA04F379
:101FF00003F0FF0001F0FF01FDE80445A0EB010044
:10200000704724BAB4FA84F424F0070426FA04F1E1
:10201000DDE9026722FA04F202F0FF0001F0FF019D
:10202000FDE80445A0EB0100704714F0030F3CD11C
:1020300010F0030428D150F8082B51F8083B82FA1D
:102040004CF582EA0305A5FA8CF55DB950F8042C2D
:1020500051F8043C82FA4CF582EA0305A5FA8CF5A6
:10206000002DE8D02DBAB5FA85F424F0070423FA40
:1020700004F122FA04F202F0FF0001F0FF01FDE892
:102080000445A0EB010070474FEAC40420F00300B0
:1020900050F8082B21F0030151F8083B0CFA04F426
:1020A00062EA040263EA0403C9E710F003041AD0E9
:1020B000A1EB040120F00300E40750F8042B06D044
:1020C0000FD28B785FFAA2F4E41A06D12BB1CB7849
:1020D0005FFAB2F4E41A00D11BB920465DF8104B48
:1020E000704701F1040150F8042BCC0721F00301E3
:1020F00051F8043B48D824D222F07F4482FA4CF5B0
:1021000094EA1325A5FA8CF50AD165B951F8043B78
:1021100084EA0204B4EB036F0ED150F8042BEBE712
:102120004FEA132355E035F07F454DD10878FDE89F
:102130000445C0F1000070474FEA126203F0FF034C
:1021400047E002EA1C4482FA4CF594EA1345A5FAEA
:102150008CF50AD165B951F8043B84EA0204B4EB6A
:10216000034F0CD150F8042BEBE74FEA134330E058
:1021700015EA1C4528D10B884FEA124229E04FEAA4
:10218000124203EA1C4324E002F0FF0482FA4CF5F9
:1021900094EA1365A5FA8CF50AD165B951F8043BA8
:1021A00084EA0204B4EB032F09D150F8042BEBE7C7
:1021B0004FEA13630DE015F0FF0F05D10B684FEAEE
:1021C000122223F07F4304E04FF00000FDE80445B5
:1021D000704712BA1BBA82FA4CF482EA0304A4FADA
:1021E0008CF5B5FA85F402FA04F203FA04F34FEA27
:1021F0001260FDE80445A0EB13607047000000008A
:1022000090F800F06DE9024520F007016FF0000C36
:1022100010F0070491F820F040F049804FF00004DE
:102220006FF00700D1E9002391F840F000F10800B9
:1022300082FA4CF2A4FA8CF283FA4CF3A2FA8CF3F1
:102240004BBBD1E9022382FA4CF200F10800A4FA58
:102250008CF283FA4CF3A2FA8CF3E3B9D1E90423AC
:1022600082FA4CF200F10800A4FA8CF283FA4CF3E3
:10227000A2FA8CF37BB9D1E9062301F1200182FA9D
:102280004CF200F10800A4FA8CF283FA4CF3A2FAA3
:102290008CF3002BC6D0002A04BF04301A4612BAB1
:1022A000B2FA82F2FDE8024500EBD2007047D1E9B4
:1022B000002304F00305C4F100004FEAC50514F043
:1022C000040F91F840F00CFA05F562EA05021CBF14
:1022D00063EA050362464FF00004A9E7000000002E
:1022E00001F0FF01102A2BDB10F0070F08D010F8C7
:1022F000013B013A8B422DD010F0070F42B3F6D1CB
:10230000F0B441EA012141EA014122F007047FF0E3
:1023100000070023F0E80256083C85EA010586EA3A
:10232000010685FA47F5A3FA87F586FA47F6A5FA76
:1023300087F68EB9EED1F0BC01F0FF0102F0070282
:1023400032B110F8013B013A83EA010313B1F8D12D
:102350000020704701387047002D06BF354603380E
:10236000073815F0010F07D1013015F4807F02BF47
:10237000013015F4C03F0130F0BC0138704700BF98
:102380004FF0FF3C06E000BF4FF0010C02E000BF41
:102390004FF0010C4DF804CD4FEA410C7FEA6C5C24
:1023A0004FEA430C18BF7FEA6C5C1BD001B050EAC7
:1023B000410C0CBF52EA430C91EA030F02BF90EAB2
:1023C000020F0020704710F1000F91EA030F58BF71
:1023D000994208BF90422CBFD8176FEAE37040F0D3
:1023E000010070474FEA410C7FEA6C5C02D150EA71
:1023F000013C07D14FEA430C7FEA6C5CD6D152EA2C
:10240000033CD3D05DF8040B704700BF84461046F0
:1024100062468C461946634600E000BF01B5FFF7EF
:10242000B7FF002848BF10F1000F01BD4DF808EDBF
:10243000FFF7F4FF0CBF012000205DF808FB00BF90
:102440004DF808EDFFF7EAFF34BF012000205DF8EA
:1024500008FB00BF4DF808EDFFF7E0FF94BF012037
:1024600000205DF808FB00BF4DF808EDFFF7CEFF38
:1024700094BF012000205DF808FB00BF4DF808ED77
:10248000FFF7C4FF34BF012000205DF808FB00BF48
:102490004FEA410C7FEA6C5C02D150EA013C0AD160
:1024A0004FEA430C7FEA6C5C02D152EA033C02D152
:1024B0004FF0000070474FF001007047000000002F
:1024C0002DE9F04F664B674F1B68DFF8A0A1DFF8DE
:1024D000A091A7B00120259303F002FE012003F094
:1024E0001FFE05F045FA00252E46202383F31188B0
:1024F0000CF04EFD0BF0A4FCD7F828800BF0C0FCCC
:102500000CF05EFD3B68BB4207D0BA699B689268DD
:102510009A4202D254480BF0F3FB002484F3118852
:1025200022462146204601F07BFC86F00106E0B2FF
:102530003146013403F054FD042CF8D1062D0FD898
:10254000DFE805F004826B775F5347000023E8B2B1
:102550001A460A21013503F09BFD042DF6D1012511
:10256000514648460AF0B4F8802205A90AF018F945
:102570000DF1020B0024204605F01AFA0134082C54
:102580002BF8020FF7D1BDF81030BDF81220BDF8BE
:102590000E0040F226249B0003EBC203A4EB400094
:1025A000C01A00B204F03CF9BDF80600BDF80820DE
:1025B000BDF804308000A4EB420400EBC300201AF5
:1025C00000B204F015F908F1640140460CF0B0F9CE
:1025D0008BE700240A23E0B219460022013403F0FD
:1025E00057FD042CF6D10025BAE700240A23E0B2F7
:1025F00019460022013403F04BFD042CF6D10625C8
:10260000AEE700240A23E0B21A460021013403F0A9
:102610003FFD042CF6D10525A2E700240022E0B2FC
:1026200011460A23013403F033FD042CF6D10325AF
:1026300096E700250A22E8B211460023013503F08F
:1026400027FD042DF6D18BE700240023E0B21946C4
:102650000A22013403F01CFD042CF6D102257FE789
:10266000000B00208821012090EA0108D0EA01082F
:102670002C190020000000000000000000000000F5
:1026800000B52C4B2C4C1B682C4D83B001930DF0E6
:1026900077FD0BF0CDFA03F003FE294A29492A48B9
:1026A00009F0A6FF0022114620460AF0E9F803F0DF
:1026B0005FFD002003F014FD002003F031FD05F064
:1026C0000FFC01F0C5FD01F00BFC04F0C1F805F0B2
:1026D000FFF804F015FA00F043FF03F041F904F0AD
:1026E00087FD03F045FC05F003FB09F081F905F0D7
:1026F000A7F9002000F0F4FF05F052FB01F070FB99
:102700000BF09EF904F0E4FA0BF042FA0F4A21466E
:1027100028460AF0B5F8284618F06AFB0C4920460E
:1027200005F006FD18F034FB0A4818F0E9FAFFF747
:10273000C7FE00BF000B002038190020141900202C
:10274000040B00200C0B00202C190020C0EA01080B
:1027500000000E08240F0020000000000000000010
:1027600000B5084B83B01A680192019A1B689A421F
:1027700005D1054803B05DF804EB0BF0C1BAFFF7D3
:10278000EFFF00BF000B0020A0EA010800000000DE
:1027900030B54368174D1A68296883B00446019123
:1027A00012B304220270DA681B6852081146984777
:1027B0002378042B18D0202383F311880CF018FC05
:1027C0000BF07EFB04F1080000210CF0A9F90BF0DE
:1027D00097FB0CF025FC002383F31188019A2B68EA
:1027E0009A4204D103B030BD02232370E3E7FFF720
:1027F000B7FF00BF000B0020000000000000000039
:1028000070B5194D82B02B68019311F00C0F0C4676
:10281000064622D114F0200109D0019A2B689A4271
:102820001FD1304602B0BDE87040FFF7B1BFE306EC
:102830000DD57268136853B1019C2868844210D189
:10284000D2683046520802B0BDE870401847019A7D
:102850002B689A4205D102B070BD04480BF050FAC3
:10286000D8E7FFF77DFF00BF000B002000EB010859
:1028700070B5194D82B02B68019311F00C0F0C4606
:10288000064622D114F0200109D0019A2B689A4201
:102890001FD1304602B0BDE87040FFF779BFE306B4
:1028A0000DD57268136853B1019C2868844210D119
:1028B000D2683046520802B0BDE870401847019A0D
:1028C0002B689A4205D102B070BD04480BF018FA8B
:1028D000D8E7FFF745FF00BF000B002000EB010821
:1028E00030B50F4D0F4C2A680F4B83B02046019234
:1028F0004FF6FF721A8000F05BFC0C4B01992A68BE
:102900000B480C4D2562636203F1240591420A4B8A
:102910002363C4E90A5001D103B030BDFFF720FFA3
:10292000000B0020681900205019002068140208CC
:102930001E010100003C00404600010000000000B4
:1029400070B52C4D03782A6882B0012B04460192A1
:1029500024D06368E26A5989236B22F4F04223F49D
:10296000F043090544BF42F4205243F42053C4E924
:102970000B23236A00221A606268236A52891A6054
:10298000236A03225A60226A136843F040031360EB
:10299000019A2B689A422BD102B070BD164EB042FC
:1029A0000AD0D4E9083212680C339360A26A236A11
:1029B00012680C339360CCE70346104A406A0A2140
:1029C00011F04EF980B9B06A0B4B0D4A0A2111F093
:1029D00047F928B90B4A136C43F400431364E0E74A
:1029E00009480BF08DF9F5E707480BF089F9EAE79C
:1029F000FFF7B6FE000B00206819002071280008C0
:102A00000128000800380240E0EA01080000000048
:102A100070B5456A174C2D68266882B00196EB6048
:102A2000436A1B685960456AC36A2D6843F4806332
:102A30002B60836A1B68DA60836A1B685960826A4C
:102A4000036B126843F480631360436A1A68136867
:102A500043F001031360836A1A68136843F00103AB
:102A60001360019A23689A4201D102B070BDFFF74A
:102A700077FE00BF000B00200000000000000000F7
:102A800030B5104D81682B680F4A83B001930B68F5
:102A900023F001030B608168946A03E0936A1B1BB7
:102AA000C72B09D8086810F00100F7D1019A2B68EC
:102AB0009A4204D103B030BD4FF0FF30F6E7FFF784
:102AC0004FFE00BF000B0020882101200000000005
:102AD00070B51C4E82B03368019311F00C0F0D4697
:102AE000044610D0C268117A52683D238B401360AF
:102AF0000378032B21D0062263682270DB6813B1B0
:102B0000002120469847AA060BD563685B6873B11D
:102B100001993268914213D1204602B0BDE870405D
:102B20001847EB0603D563689B68002BF0D1019A28
:102B300033689A4204D102B070BDFFF7A1FFDAE713
:102B4000FFF70EFE000B0020000000000000000058
:102B5000F0B5284D83B02B6801930CF0E1F90BF030
:102B6000EFF9254B1E69F20715D55A69234C42F03F
:102B700001025A612778BB1F012B2AD905226368FD
:102B800022701B680BB120469847042F27D0022FD4
:102B900025D003232370B30710D5174A174C536968
:102BA00043F0020353612378032B1DD06368DB6875
:102BB0000622227013B10121104898470BF0E8F962
:102BC000019A2B689A4213D103B0BDE8F0400DF092
:102BD00097BA019A2B689A420AD103B0F0BD02233A
:102BE0002370B307EAD5D8E72046FFF749FFDDE7B2
:102BF000FFF7B6FD000B002000000550541900201F
:102C000030B50B4D0B4C2B6883B02046019300F080
:102C10002FF9019A2B680848084D094921619A4209
:102C2000C4E9025001D103B030BDFFF799FD00BFE8
:102C3000000B002054190020041502080000055064
:102C40001E5503020000000000000000000000000C
:102C50002DE9F0412F4C0578266882B0012D0196B0
:102C600006D0019A23689A4252D102B0BDE8F081A1
:102C7000294DA842F5D10E4690461F46274AE868DE
:102C80002B460C2110F0ECFF002839D1D5E9023297
:102C9000126828339360EB681A68042151611B683D
:102CA000C3F80C80EB681A6817611B68B6085E6091
:102CB0002B694FB343F480232B61E968184A0968F4
:102CC0000B60EB6819680B6843F001030B60536BF2
:102CD00043F0010353630B214E2010F0A1FCD5E912
:102CE0000113DA6842F00102DA60DA6842F00202A7
:102CF000DA600A6922F4804222F001021A60B0E729
:102D000008480AF0FDFFC1E723F480232B61D4E7D4
:102D1000FFF726FD000B002054190020D12A0008DF
:102D20000038024010EB0108000000000000000025
:102D300030B5184C0378226883B0022B019205D07D
:102D4000019A23689A4223D103B030BD124B9842B6
:102D50000546F5D18168114A0B6823F4804323F0BE
:102D600001030B608168CB6823F00F03CB60536BCA
:102D700023F0010353634E2010F07AFC019A23687C
:102D80009A4205D1E86803B0BDE8304010F0D0BFEA
:102D9000FFF7E6FC000B0020541900200038024029
:102DA00000B50F4B0278196883B0022A01910ED149
:102DB00081680A6842F002020A6081680A6842F487
:102DC00080420A6081680A6842F001020A60019A42
:102DD0001B689A4202D103B05DF804FBFFF7C0FC08
:102DE000000B0020000000000000000000000000B8
:102DF00000B50F4B0278196883B0022A01910ED1F9
:102E000081680A6822F002020A6081680A6842F456
:102E100080420A6081680A6842F001020A60019AF1
:102E20001B689A4202D103B05DF804FBFFF798FCDF
:102E3000000B002000000000000000000000000067
:102E400000B5074B83B01A680192019A1B689A4239
:102E500004D103B05DF804EBFFF7D2BEFFF780FCAE
:102E6000000B002000000000000000000000000037
:102E700000B5084B83B01A68019201220270019AD2
:102E80001B6800219A42416002D103B05DF804FB47
:102E9000FFF766FC000B00200000000000000000AF
:102EA0002DE9F043254D83B02C680194DDF828907E
:102EB0000F4616469846044618B111B1204B9A4267
:102EC0002FD920480AF01CFF202383F311880CF02F
:102ED0005FF80AF0B5FF2378012B02D019480AF0F9
:102EE0000FFF4246314620464B466760FFF7B0FE73
:102EF000022323700AF0C4FF0CF062F8124B1A6828
:102F00009A4204D0996993688A689A420FD3002341
:102F100083F31188019A2B689A420CD103B0BDE863
:102F2000F0839307CDD1B8F1000FCDD1C9E70748A1
:102F30000AF0E6FEEBE7FFF713FC00BF000B0020F2
:102F4000FCFF030040EB01088821012030EB010861
:102F500030B51C4D83B02B680193044658B3202331
:102F600083F311880CF014F80AF06AFF2378022B1F
:102F700002D015480AF0C4FE2046FFF7D9FE01230F
:102F800023700AF07DFF0CF01BF8104B1A689A4270
:102F900004D0996993688A689A4208D3002383F31E
:102FA0001188019A2B689A4209D103B030BD0848B4
:102FB0000AF0A6FEF2E704480AF0A2FECFE7FFF708
:102FC000CFFB00BF000B002050EB0108882101203F
:102FD00030EB0108000000000000000000000000CD
:102FE00030B51C4D83B02B680193044658B32023A1
:102FF00083F311880BF0CCFF0AF022FF2378022B19
:1030000002D015480AF07CFE2046FFF7C9FE0423D3
:1030100023700AF035FF0BF0D3FF104B1A689A4269
:1030200004D0996993688A689A4208D3002383F38D
:103030001188019A2B689A4209D103B030BD084823
:103040000AF05EFEF2E704480AF05AFECFE7FFF707
:1030500087FB00BF000B002060EB010888210120E6
:1030600030EB01080000000000000000000000003C
:1030700030B51C4D83B02B680193044658B3202310
:1030800083F311880BF084FF0AF0DAFE2378022B19
:1030900002D015480AF034FE2046FFF7A9FE0323AC
:1030A00023700AF0EDFE0BF08BFF104B1A689A426A
:1030B00004D0996993688A689A4208D3002383F3FD
:1030C0001188019A2B689A4209D103B030BD084893
:1030D0000AF016FEF2E704480AF012FECFE7FFF707
:1030E0003FFB00BF000B002080EB0108882101207E
:1030F00030EB0108000000000000000000000000AC
:1031000030B51A4D83B02B680193044638B32023A1
:1031100083F311880BF03CFF0AF092FE0223204655
:103120002370FFF705FE012323700AF0A9FE0BF0C0
:1031300047FF0F4B1A689A4204D0996993688A68CE
:103140009A4208D3002383F31188019A2B689A428C
:1031500009D103B030BD07480AF0D2FDF2E70648B6
:103160000AF0CEFDD3E7FFF7FBFA00BF000B00200B
:103170008821012030EB010890EB010800000000DD
:1031800000B5074B83B01A680192019A1B689A42F6
:1031900004D103B05DF804EBFFF7A2BBFFF7E0FA40
:1031A000000B0020000000000000000000000000F4
:1031B00000B50A4B83B01A6801920122027001998E
:1031C0001A6800239142C0E9013305D10C3003B0E5
:1031D0005DF804EB0CF014B8FFF7C2FA000B002006
:1031E00070B51E4D82B02B6801930E46044670B335
:1031F00069B3202383F311880BF0CAFE0AF020FE86
:103200002378013B012B02D915480AF079FD2046AD
:103210006660FFF795FB022323700AF031FE0BF086
:10322000CFFE104B1A689A4204D0996993688A6855
:103230009A4208D3002383F31188019A2B689A429B
:1032400009D102B070BD08480AF05AFDF2E70448FF
:103250000AF056FDCDE7FFF783FA00BF000B002010
:10326000B0EB010888210120A0EB0108000000005C
:103270002DE9F041214D82B02C6801940E46904614
:103280001F46044600B171BB1D480AF039FD2023DA
:1032900083F311880BF07CFE0AF0D2FD2378022B19
:1032A00002D017480AF02CFD03203B464246314627
:1032B00020702046FFF7ACFB0AF0E2FD0BF080FE29
:1032C000104B1A689A4204D0996993688A689A42A6
:1032D0000ED3002383F31188019A2B689A420BD1F5
:1032E00002B0BDE8F081002BCED0002ACFD1CBE7D1
:1032F00005480AF005FDECE7FFF732FA000B002065
:10330000C0EB010888210120A0EB010800000000AB
:1033100000B5084B83B01A680192019A1B689A4263
:1033200005D1054803B05DF804EB0AF0E9BCFFF7EE
:1033300017FA00BF000B0020E0EB010800000000BE
:1033400070B5194A194C1578236882B001934FF46F
:10335000B47303FB00F665B1019A23689A4220D149
:1033600013481449B1FBF6F102B0BDE870400DF00E
:10337000F7BC114911484D60012515708022428328
:103380000F4A10480DF034FB019A23689A4208D185
:1033900007480849B1FBF6F102B0BDE870400DF0F6
:1033A00047BDFFF7DDF900BFC0190020000B00206A
:1033B0002C2F012000BD0105B0190020000C024097
:1033C000F0EB0108D82B01200000000000000000F5
:1033D000F0B51A4D1A4C2E78276883B0019717461E
:1033E00066B1019A23689A4226D116481649B1FB64
:1033F000F7F103B0BDE8F0400DF0B2BC134EDFF8BA
:1034000054C0736002464FF0010E80200B4685F8D1
:1034100000E03146ACF81A000D480DF0E9FA019AC7
:1034200023689A4208D107480749B1FBF7F103B076
:10343000BDE8F0400DF0FCBCFFF792F9C019002088
:10344000000B00202C2F012000BD0105B019002029
:10345000D82B0120000C02400000000000000000FA
:10346000F0B5114C83B02368019305460F480E4612
:1034700017460DF015FD0E480DF04AFB33462A465F
:103480000C490B480DF07CFA019A23689A4208D146
:1034900006480949B1FBF7F103B0BDE8F0400DF073
:1034A0009FBCFFF75DF900BF000B00202C2F01200F
:1034B000D82B0120B019002000BD0105000000003C
:1034C00010B50C4C0C4B22680C4882B00192802243
:1034D0001A830DF0E5FC0A480DF01AFB019A2368E7
:1034E000084900209A42087001D102B010BDFFF7D0
:1034F00037F900BF000B0020000C02402C2F0120E8
:10350000D82B0120C019002000000000000000009E
:1035100010B50C4C0C4B22680C4882B001928022F2
:103520001A830DF0E5FC0A480DF0A2FA019A23680F
:10353000084900209A42087001D102B010BDFFF77F
:103540000FF900BF000B0020000C02402C2F0120BF
:10355000D82B0120C019002000000000000000004E
:1035600070B5154D154A164B2968164E9E6082B0EF
:1035700000244FF4006010800191947011461248AD
:103580005C6001221A60DC600DF0B2F90F4B104E46
:1035900010485C60202219469A60DC601E600DF0C5
:1035A00097FB019A2B689A4204D102B0BDE87040A3
:1035B000FFF7AEBFFFF7D4F8000B0020AC190020D6
:1035C000B019002011330008D82B01209C190020CD
:1035D00000BD01052C2F01200000000000000000AC
:1035E0002DE9F04F394A3A4B126883B00124019219
:1035F0001C70002963D04FF00008364CC246C34609
:10360000C1464746C446434647F6FF7E1DE0AB45EC
:10361000A8BFAB46024432F9026CB2F90450B4427E
:10362000B8BF3446B645A8BFB6464D4545DCA845AB
:10363000A8BFA846B2F90220BA420EDC0433924574
:103640009BB2A8BF924699420CD95D1C6A0030F922
:1036500015506545DBDDAC46DCE704339BB299428F
:103660001746F2D8A4EB0E04ACEB0B0CA7EB0A0741
:10367000A9EB0808A4B21FFA8CFCBFB21FFA88F8A5
:10368000154A12491480019C0968144BA2F802C023
:103690009780B0F8F8C4B0F8FA64A2F80680B0F8E1
:1036A000FC54B0F8FE24A3F800C08C425E809D80DC
:1036B000DA8008D103B0BDE8F08FA946BAE78846A2
:1036C0000F468C46DCE7FFF74BF800BF000B0020ED
:1036D000C11900200080FFFFCC190020C419002070
:1036E00070B53F4B3F4C1A78236882B0012A019392
:1036F00005D0019A23689A4270D102B070BD3A4950
:103700003A4B4D6C45F480354D644E6A002546F4C5
:1037100080364E624D621D61DD60196A21F0010143
:103720001962996921F003019961996941F00101D8
:103730009961996921F0F0019961196A21F00A01F2
:103740001962996921F00C019961996821F0700161
:103750009960996841F050019960996821F480312D
:1037600021F007019960996841F007019960196893
:1037700021F440711960DA629D625A61196A21F080
:1037800010011962996921F440719961996921F0D8
:10379000807121F4E0419961996941F4C0419961D6
:1037A000196A21F0A00119629A639A6942F40062D1
:1037B0009A611A6A22F480621A621A6A42F011024D
:1037C0001A621A6842F001021A6020B1009068463D
:1037D00000F076F98DE7064B0093F8E7FEF7C0FF9F
:1037E000C42E0120000B00200038024000400140A0
:1037F000E1350008000000000000000000000000AB
:1038000070B5114C82B0236801930E4615462023F3
:1038100083F311880BF0ECFB0AF052FB0B4B0C48C6
:10382000C3E900650BF0ACFC0AF06AFB0BF0F8FB97
:10383000002383F31188019A23689A4201D102B0D0
:1038400070BDFEF78DFF00BF000B0020E82E0020AA
:10385000D41900200000000000000000000000005B
:1038600070B5114C82B0236801930E461546202393
:1038700083F311880BF0BCFB0AF022FB0B4B0C48C6
:10388000C3E900650BF07CFC0AF03AFB0BF0C8FBC7
:10389000002383F31188019A23689A4201D102B070
:1038A00070BDFEF75DFF00BF000B0020CC2C002098
:1038B000D4190020000000000000000000000000FB
:1038C0002DE9F04F624B63499A69634B916185B072
:1038D0001B6803935E4B9B6993F821305B0700F1F3
:1038E000AD805E480BF014FC5C480BF011FC584BAB
:1038F0009B6993F8212012F0040240F09F80584DFC
:1039000058482B6801680446406805EB830304EBC4
:10391000810103F50279430001F10808019343D0C6
:10392000DFF850B1504BDFF85CA1012018F81250BD
:1039300018F8006019F8121019F8004005F0550C3D
:10394000770806F0550613F80CC09E5D01F0550E81
:103950004CEA061649084FEA540C01F0550104F0F0
:1039600055040CF0550C6D0813F80EE0595C1C5D05
:1039700013F80CC00BF8126005F0550507F0550759
:1039800041EA0C114EEA041E0AF812E05D5D0AF8E5
:103990000010DF5D0199013245EA071591420BF8ED
:1039A000005000F10200C1D1304B31493148324D55
:1039B0000422FCF75DFD314B314932480422FCF70B
:1039C00057FD314B314932480422FCF751FD314B50
:1039D000314932480422FCF74BFDDFF8D4C0286897
:1039E0009CF80070224A264900EBC71302F14006FA
:1039F00014881C8054885C804C889C80043231F888
:103A0000044BDC80964203F10803F1D1092F11D158
:103A1000234B00221B688CF800204FF4207198473C
:103A20002B68204A204993420B6006BF1F4B2B6036
:103A30002A604FE701378CF800704BE7064B039A7A
:103A40001B689A4202D105B0BDE8F08FFEF788FEF0
:103A500088210120C0EE0108000B0020D4190020AD
:103A6000E82E0020CC2C0020200B0020A42A0020CF
:103A7000601F0020A01F0020A00B00200C2B0020A6
:103A8000742B0020B42B0020D82A0020621F0020B5
:103A9000A11F0020402B0020762B0020B52B0020FA
:103AA000B42C0020A0200020A40B0020A025002082
:103AB000A02A00200000000000000000000000001C
:103AC0002DE9F04F494A0168494B116085B000214A
:103AD0000E461B68474803930BF0BAFA4FF4AF61E8
:103AE000454B009641224548454DDFF84891454CED
:103AF000DFF844A1444F0AF083FE444B444A186067
:103B0000136BC5F804A043F480534FF002184FF430
:103B10007A5B13632846C5E90298A5F800B0FCF764
:103B2000EFFB2046C4E901A9C4F80C80A4F800B05A
:103B3000FCF7E6FB05F13400C5E90EA9C5F84080A5
:103B4000A5F834B0FCF7DCFB324DC4F8408004F13A
:103B50003400C4E90EA9A4F834B0FCF7D1FB314617
:103B600040F20C42384617F0B3FCDFF8D0902A4AF6
:103B70006E604FF400634FF080082E812A606B81E5
:103B8000264CC5F80C80C7F80894FFF7F9FA2946C7
:103B90002348244DFFF724FB07F5027307F10802C1
:103BA0004FF480711E48FFF763FB314620464FF407
:103BB000037217F08DFC1C4B1C4AC4F808920834A1
:103BC0001A611946C3E900641948C3E902850DF07A
:103BD000E7FB074B039A1B689A4205D1144805B0CE
:103BE000BDE8F04F0DF024BCFEF7BAFDB42C002068
:103BF000000B0020D4190020C1380008E81900206B
:103C0000A42A00200C2B0020E82E0020E019002020
:103C100000380240D82E002001380008CC2C0020AB
:103C20006819002061380008B82C00202C03080017
:103C3000C42E0120000020410000FA45EFBEADDE99
:103C400010B50B4C0B48236882B001930BF0C0FBFE
:103C500009480BF09DFD019A23689A4205D1054859
:103C600002B0BDE810400BF0EBBBFEF779FD00BFE2
:103C7000000B0020B40B0020AC0B00200000000063
:103C800030B50F4C83B0236801930D4608B1FFF7A0
:103C900057FB4FF47A700B4900FB05F000F2E73058
:103CA000A1FB003080090AF003FE019A23689A42C2
:103CB00004D103B0BDE83040FFF72ABCFEF750FD49
:103CC000000B0020D34D6210000000000000000037
:103CD0002DE9F0432DED028BDFF8FC80344BD8F852
:103CE000182034491B68344DDFED348A9FED348A47
:103CF000344E354F916183B00193202383F31188B3
:103D00000BF046F90AF09CF830480AF0B1FE286042
:103D10000AF0B6F80BF054F9D8F80030434508D053
:103D2000D8F818209B6892689A4202D2284809F075
:103D3000E7FF4FF0000989F311882B681A8972BBDD
:103D400030E0D3E9001202EB890393ED007A31F8F9
:103D50001900C8EE877A09F10109FCEEE77A17EE3F
:103D6000903A9CB22146FFF78BFF07EE904AF8EE9F
:103D7000E77A4FF47A7367EE887AFCEEE77A17EE0B
:103D8000902A90B203FB00F000F2E730A7FB00306E
:103D900080090AF08DFD2B681A894A4502DD3278C8
:103DA000002ACED100230B4833700BF071FCA4E73E
:103DB000000B0020D0EE0108F832002000007A4409
:103DC0006666A63FA80B0020D34D6210F432002097
:103DD000E0EE0108AC0B002088210120000000006B
:103DE00010B50A4C0A4B22680A4884B04FF4FC71A3
:103DF00003920022009240220AF002FD039A2368F7
:103E00009A4201D104B010BDFEF7AAFC000B0020BD
:103E1000D13C00080033002000000000000000003A
:103E200030B51E4C85B0236803930F2815D00E289B
:103E300015D81B4A00EB400002EB800219480368CA
:103E400099B963B103992368174D012499422C70E5
:103E500008BF114617D0FEF783FC002AEED1039A63
:103E600023689A42F7D105B030BD02290E4D04BF38
:103E70000021297063B103992368012099422870B9
:103E8000E9D10848114605B0BDE830400AF0A8BEA7
:103E90000192FFF7D5FE019AEDE700BF000B00206D
:103EA000F0F30108F4320020A80B0020000000000D
:103EB00000B5074B07491A68087083B00192019A50
:103EC0001B689A4202D103B05DF804FBFEF748FC80
:103ED000000B0020F834002000000000000000006B
:103EE00030B5274C83B02368019301F091FD25493B
:103EF00025480DF015FB0122002123480DF0A8FBF9
:103F00004FF47A700AF0D4FC01F0D2FC01281DD0E5
:103F100001F0F6F80128054609D000F099FD0128C6
:103F200020D0019A23689A4228D103B030BD174BA4
:103F3000187001F075F8019A23689A421ED129463B
:103F4000284603B0BDE8304001F08AB8019A2368E2
:103F50000E4900209A42087010D103B0BDE83040ED
:103F600001F05EBC019A2368084902209A42087059
:103F700004D103B0BDE8304000F00ABDFEF7F0FB0D
:103F8000000B002030010208902F0120C80B0020F8
:103F900000B5174B174A93F90030116883B00191AF
:103FA00001995BB1012B18D0022B13680ED09942F6
:103FB0004FF0000019D103B05DF804FB136899427B
:103FC00013D103B05DF804EB01F052BC99420CD15F
:103FD00003B05DF804EB00F01BBD1368994204D1F7
:103FE00003B05DF804EB01F06BB8FEF7B9FB00BF5E
:103FF000C80B0020000B00200000000000000000A3
:1040000010B51B4B1B4C93F90030226882B0019213
:10401000B3B1012B21D0022B06D00020019A2368D6
:104020009A4223D102B010BD134B1B788BB1019A79
:1040300023689A421AD102B0BDE8104000F0E8BCF3
:10404000019A23689A4211D102B0BDE8104001F0F4
:104050000FBC00F0DDFC4000E0E7019A23689A42C3
:1040600004D102B0BDE8104001F02AB8FEF778FB99
:10407000C80B0020000B0020C90B0020000000002E
:10408000F0B5124F83B03B68019300F071F9104B0B
:1040900093F90030022B064606D0019A3B689A42FB
:1040A000304610D103B0F0BD0A4B1C7824B1F4E7C0
:1040B000735D33550134A4B2FFF7A2FF6500ADB2C2
:1040C0008542F5D3E9E7FEF74BFB00BF000B00206C
:1040D000C80B0020C90B00200000000000000000F9
:1040E00000B5084B08491A6883B000200192019A74
:1040F0001B6808709A4202D103B05DF804FBFEF71A
:104100002FFB00BF000B0020FF3400200000000048
:1041100010B5104C82B023680193202383F31188DB
:104120000AF066FF09F0CCFE0B4B0C4801221A7016
:104130000BF086FA09F0E4FE0AF072FF002383F325
:104140001188019A23689A4201D102B010BDFEF78E
:1041500007FB00BF000B002008CB0020CC0B002089
:1041600010B50F4C0F4B2268197082B020230192BA
:1041700083F311880AF03CFF09F0A2FE0A480BF015
:104180005FFA09F0BDFE0AF04BFF002383F31188AC
:10419000019A23689A4201D102B010BDFEF7E0FAFD
:1041A000000B0020FC340020CC0B0020000000009D
:1041B00000B51F4A1F4B127818681F4983B0019041
:1041C00001208242087006D0019A1B689A422CD1C5
:1041D00003B05DF804FB1949194A0978D268814295
:1041E000126811D01748184900780968012810682A
:1041F00006D000030ED51069884212D0D160E3E7E3
:104200000003FBD41161DFE710681049000309685F
:10421000F8D5F3E7D0688842F4D10C4909681161F8
:10422000D2E70A490968D160CEE7FEF799FA00BFE4
:10423000FE340020000B0020FF340020F934002061
:1042400054190020FA34002000CB002004CB0020B9
:1042500030B50B4C0B4D236883B00193FEF7F0FD96
:10426000094B0199226809482B60914203F5964356
:10427000036002D1002003B030BDFEF771FA00BF29
:10428000000B002000CB00200035002004CB0020D4
:1042900030B51B4D1B4C2B78226885B0012B039247
:1042A00025D0FFF7ADFE184B1B78024653B9B0F589
:1042B000164F20D8154900930B6815481549FEF78D
:1042C000EFFD0BE0B0F5964F15D813490F4B096879
:1042D0001B680F4800910F49FEF7E2FD01232B7088
:1042E0000020039A23689A4208D105B030BD0848DF
:1042F000FEF72EFED5E74FF0FF30F2E7FEF730FA7B
:10430000FD340020000B0020FE34002000CB0020F4
:10431000541900207001020804CB002000000000A6
:1043200010B50C4C0C48236882B001930BF050F888
:104330000A480BF02DFA0A4B019A187823689A4222
:1043400005D1B0FA80F04009404202B010BDFEF73E
:1043500007FA00BF000B0020D40B0020CC0B00207C
:1043600008CB00200000000000000000000000005A
:1043700070B5294B294C1878294D236882B00193D8
:104380002B7858B9012B03D0264A012310682B70D3
:10439000019A23689A423DD102B070BD012B37D0FB
:1043A000214E3378012B33D0204B1B78FBB9204BA7
:1043B0001C4ADB6811681B681A68100307D5DA68A5
:1043C0008A424FF0010221D03270D868E0E71A69C2
:1043D0008A424FF0010208D032701869D8E71A6992
:1043E000096891424FF00102F6D12A70F5E7FFF714
:1043F00097FF0F4B0B49DB681B681A681203EED559
:10440000DA68096891424FF00102DDD12A70DCE7D9
:104410000020BDE7FEF7A4F9FE340020000B0020C9
:10442000F934002000CB0020FA340020FF340020B3
:1044300054190020000000000000000000000000EF
:1044400010B5084B084C1A68084882B001920199CF
:104450001A68002391422370037001D102B010BD8D
:10446000FEF77EF9000B0020F9340020FA3400201A
:1044700010B5174A174B1278196882B00191F2B142
:10448000154A1648164C1178002202702270154801
:1044900051B101991B680270994216D1124802B0BD
:1044A000BDE81040FEF7E4BD019A1B6801709A4216
:1044B0000BD10D4802B0BDE81040FEF791BD019A46
:1044C0001B689A4201D102B010BDFEF749F900BF46
:1044D000FD340020000B0020FB340020FA340020C3
:1044E000F934002008CB00205419002000000000FF
:1044F00010B50D4B0D4C1A78216882B0012A01913C
:1045000008D0019A23689A420CD102B0BDE810404D
:10451000FFF7BEBE0649074800220A701A70FEF770
:10452000EFFDEEE7FEF71CF9FD340020000B002044
:10453000FC3400205419002000000000000000009E
:1045400070B51C4C1C4E86B033680593054620465A
:104550008DF810108DF811200CF0B2FE2378012B8D
:104560000CD000233222CDE901322946009304AA5F
:10457000022320460CF0CCFD054648B90D480CF04E
:10458000BFFE0020059A33689A4210D106B070BD74
:1045900001F076FA2378052B04D006480CF0B0FE23
:1045A00028B2EFE701F054FA01F032FAF5E7FEF72E
:1045B000D7F800BF082C0120000B002000000000ED
:1045C0002DE9F043224C234F87B03B680593064604
:1045D00020468DF8101090460CF072FE2378012BC7
:1045E00023D00023B6B24FF03209CDE90139009350
:1045F0003146012304AA20460CF08AFD054648B145
:1046000001F03EFA2378052B1AD011480CF078FE01
:1046100068B20EE0CDF800904246314601232046B4
:104620000CF0E6FD05460028EAD109480CF068FECA
:104630000020059A3B689A4207D107B0BDE8F08395
:1046400001F006FA01F0E4F9DFE7FEF789F800BFB0
:10465000082C0120000B00200000000000000000DA
:1046600030B583B002AA124C002322F8083D05465B
:10467000236801930A212120FFF7A2FF28B1019AA4
:1046800023689A4211D103B030BD0DF101020B2114
:104690002120FFF795FF0028F1D19DF800209DF81B
:1046A000013043EA02232B80E9E7FEF759F800BF07
:1046B000000B0020000000000000000000000000CF
:1046C0002DE9F04F01F1B70505EB030BAB4F85B0BA
:1046D000BBF5447F3C6803944FF0000128BFABF565
:1046E000447BB3F5207FDDF8389001901C4602F141
:1046F0000A0A8DF80A10ADF808109DF83C609DF884
:10470000408000F20F81B9F5F07F00F20B81B5F522
:10471000207F00F20D81BAF5F07F00F20C81B045E8
:1047200000F2038102AA72212120FFF749FF10BB8A
:104730009DF80820402E02F0CC028DF8082000F0F1
:10474000D980802E00F0CC80202E00F0B180B8F10E
:10475000400F00F0B380B8F1800F00F0D580B8F1C1
:10476000200F00F0B980C5F3C70217212120FFF701
:10477000E7FE40B238B1039A3B689A4240F0E480C9
:1047800005B0BDE8F08FCBF3C70218212120FFF759
:10479000D7FE40B20028EED14FEACB0303F0380237
:1047A00005F007052A4332212120FFF7C9FE40B258
:1047B0000028E0D1CAF3870219212120FFF7C0FEAB
:1047C00040B20028D7D1D144C9F387021A21212051
:1047D000FFF7B6FE40B20028CDD14FEA890909F0B3
:1047E0000C090AF0030249EA020203212120FFF723
:1047F000A7FE40B20028BED10DF109023E212120C2
:10480000FFF7DEFE0028B6D19DF8093023F007033C
:1048100043F008030DF10A02732121208DF80930BD
:10482000FFF7CEFE0028A6D19DF80A3003F0F8036A
:1048300063F00F02402E8DF80A2000F09280802E47
:1048400000F08480202E03D1B8F1200F00F0948076
:1048500004220C212120FFF773FE40B200288AD1E8
:104860009DF809203E2142F010022120FFF768FE4A
:1048700040B200287FF47FAF9DF8082072212120EC
:10488000FFF75EFE40B200287FF475AF9DF80A2066
:1048900073212120FFF754FE40B200287FF46BAF54
:1048A000374B9DF804201A715E7183F8068062E729
:1048B000334AB8F1400F14807FF44DAF19F0010F67
:1048C0003CD19DF808102E4841F010014FEA5902E2
:1048D0008DF80810428046E7294AA2F8029042E784
:1048E000A3072ED1264942F00202A4088DF8082021
:1048F0000C802CE7E10724D4214942F0010264082E
:104900008DF808200C8022E719F0030F16D19DF8CE
:1049100008101B4841F020014FEA99028DF8081059
:10492000428020E76FF0070025E76FF0030022E7E1
:104930006FF001001FE76FF002001CE76FF0060048
:1049400019E76FF0050016E7FDF70AFF9DF809204B
:1049500063F00D0342F002028DF80A308DF8092051
:1049600076E79DF8092063F00E0342F001028DF80E
:104970000A308DF809206BE700226AE7000B00205F
:104980000CCB002000000000000000000000000030
:1049900010B51E4C86B02368059380221221212079
:1049A000FFF7CEFD0A2009F083FF8022112121208C
:1049B000FFF7C6FD04223A212120FFF7C1FD0422A2
:1049C00012212120FFF7BCFDD02240212120FFF73A
:1049D000B7FD022215212120FFF7B2FD8422B0216C
:1049E0002120FFF7ADFD20237822CDE9013300928D
:1049F000A023B422F0210120FFF762FE059A23686C
:104A00009A4201D106B010BDFDF7AAFE000B0020AE
:104A100010B50A4B0A4A1988146858881B7982B065
:104A2000022B019400FB01F00199136818BF4000AC
:104A3000994201D102B010BDFDF792FE0CCB0020CF
:104A4000000B00200000000000000000000000003B
:104A500030B583B002A80D4D00242B6820F8064D18
:104A60000193FFF7FDFD68B9BDF8020047F27364DA
:104A7000001BB0FA80F04009019A2B689A4203D1DA
:104A800003B030BD2046F7E7FDF76AFE000B0020BB
:104A900030B583B002AA114C00210546236822F8E4
:104AA000081D6E20019301F003F828B1019A2368D4
:104AB0009A4211D103B030BD0DF1010201216E20E7
:104AC00000F0F6FF0028F1D19DF800209DF801309C
:104AD00043EA02232B80E9E7FDF742FE000B0020AA
:104AE00030B50E4C83B005462368019301220321A3
:104AF0006E2001F02DF828B1019A23689A420BD15B
:104B000003B030BD2A4638216E2001F021F800287C
:104B1000F2D1034B1D71EFE7FDF722FE000B0020E1
:104B200014CB002000000000000000000000000086
:104B30002DE9F04F8DB0DFF80494DDF858C0D9F8B6
:104B400000400B9401F10806171D5C1E0CF1FF35A7
:104B5000B3F5207F9DF85CA0009034443D449DF85F
:104B600060B000F21082BCF5F07F00F20C82B6F566
:104B7000227F00F21182B7F5F27F00F21082A64286
:104B800080F00482B4F5227F00F20082AF4280F010
:104B90000082B5F5F27F00F2FC81BAF1400F00F01F
:104BA000B581BAF1800F23D0BAF1200F00F0A181B6
:104BB0004FF00008CDF80480BBF1400F2ED0BBF1C0
:104BC000800F00F0CB81BBF1200F00F0B9810023F2
:104BD000CDE902330098FFF783FF002838D00B9A05
:104BE000D9F800309A4240F0E3810DB0BDE8F08F73
:104BF0009A0740F0D781CF4AB4084FEA4308661CB1
:104C0000A2FB0818A2FB031204EB9304BBF1400FB4
:104C100006EBD203019306EBD808D0D11CF0010FAC
:104C200040F0C381C34B00987D084FEA4C026F1CD3
:104C3000A3FB0212A3FB0C1307EB9303029307EBF6
:104C4000920305EB5C050393FFF74AFF0028C6D1EA
:104C5000012203216E2000F07BFF0028BFD1C6F3A4
:104C600007231A4650216E20049300F071FF00289C
:104C7000B5D1F3B21A4651216E20059300F068FFBA
:104C80000028ACD1C7F307231A4652216E200693A1
:104C900000F05EFF0028A2D1FBB21A4653216E201D
:104CA000079300F055FF002899D1C4F3072254213F
:104CB0006E2000F04DFF002891D1E3B21A46552135
:104CC0006E20089300F044FF002888D1C5F3072226
:104CD00056216E2000F03CFF002880D1EBB21A462E
:104CE00057216E20099300F033FF00287FF477AF3F
:104CF000524680216E2000F02BFF00287FF46FAF1A
:104D00005A4681216E2000F023FF00287FF467AF10
:104D1000024660216E2000F01BFF00287FF45FAF89
:104D20000C2261216E2000F013FF00287FF457AFA2
:104D3000012262216E2000F00BFF00287FF44FAFAC
:104D4000EC2263216E2000F003FF00287FF447AFC0
:104D5000009B0D2B00F04081BAF1400F00F046811E
:104D6000BAF1800F00F02F81BAF1200F00F02281FC
:104D7000012282216E2000F0EBFE00287FF42FAF8D
:104D8000022203216E2000F0E3FE00287FF427AF0B
:104D9000049A10216E2000F0DBFE00287FF41FAF84
:104DA000059A11216E2000F0D3FE00287FF417AF82
:104DB000069A12216E2000F0CBFE00287FF40FAF80
:104DC000079A13216E2000F0C3FE00287FF407AF7E
:104DD000A21BC2F3072214216E2000F0B9FE0028A6
:104DE0007FF4FDAE089B059A9A1AD2B215216E2067
:104DF00000F0AEFE00287FF4F2AEEA1BC2F30722F9
:104E000016216E2000F0A4FE00287FF4E8AE099B76
:104E1000079A9A1AD2B217216E2000F099FE002844
:104E20007FF4DDAE019B1821C3F307226E2000F052
:104E30008FFE00287FF4D3AE9DF8043004931A4609
:104E400019216E2000F084FE00287FF4C8AE029B7A
:104E50001A21C3F307226E2000F07AFE00287FF4A7
:104E6000BEAE9DF8083005931A461B216E2000F057
:104E70006FFE00287FF4B3AE019BA8EB0302C2F3E0
:104E800007221C216E2000F063FE00287FF4A7AEED
:104E9000049BA8EB0302D2B21D216E2000F058FE45
:104EA00000287FF49CAEDDE902239A1AC2F30722A0
:104EB0001E216E2000F04CFE00287FF490AE039B74
:104EC000059A9A1AD2B21F216E2000F041FE0028E6
:104ED0007FF485AE184B9DF800201A71013401351E
:104EE000A61BEF1B1E805F8083F805A083F806B029
:104EF00075E6104A4FEA4308A2FB031306EB53037F
:104F0000A2FB0828019306EB580855E6D90749D4B7
:104F1000084A74084FEA4308661CA2FB0818A2FB63
:104F2000031204EB530406EB9203019306EB98087B
:104F300042E600BFABAAAAAA14CB0020000B0020B7
:104F4000334A4FEA4C03A2FB0C1CA2FB032307EBE2
:104F5000530307EB5C02029203933BE61CF0030F42
:104F600023D12B4BBD084FEA4C026F1CA3FB02124E
:104F7000A3FB0C1307EBD303029307EBD20305EB60
:104F80009C05039326E66FF0070028E66FF0030008
:104F900025E66FF0040022E66FF001001FE66FF0D7
:104FA00002001CE66FF0050019E66FF0060016E639
:104FB000FDF7D6FB002268216E2000F0C9FD002815
:104FC0003FF4D6AE0BE6032268216E2000F0C0FD50
:104FD00000283FF4CDAE02E6BAF1400FF3D0BAF1AB
:104FE000800F0CD0BAF1200F7FF4C2AE01226821ED
:104FF0006E2000F0ADFD00283FF4BAAEEFE50722C9
:1050000068216E2000F0A4FD00283FF4B1AEE6E573
:10501000ABAAAAAA000000000000000000000000E7
:1050200030B50B4C87B02023782225680092CDE95B
:105030000133B422A023F02102200595FFF778FD6B
:10504000059A23689A4201D107B030BDFDF788FB6D
:10505000000B002000000000000000000000000025
:1050600070B5134C82B006460D46236801930022AA
:1050700003216E2000F06CFD90B9012E0199236888
:105080000CBFB5223522012D08BF42F040029942E3
:105090000CD190216E2002B0BDE8704000F058BDE8
:1050A000019A23689A4201D102B070BDFDF758FB06
:1050B000000B0020000000000000000000000000C5
:1050C00010B50A4B0A4A1988146858881B7982B0AF
:1050D0000D2B019400FB01F00199136818BF4000EB
:1050E000994201D102B010BDFDF73AFB14CB00206C
:1050F000000B002000000000000000000000000085
:1051000030B583B002A80D4D00242B6820F8064D61
:105110000193FFF7BDFC68B9BDF8020046F2300408
:10512000001BB0FA80F04009019A2B689A4203D123
:1051300003B030BD2046F7E7FDF712FB000B00205F
:1051400030B583B002AA114C00210546236822F82D
:10515000081D6E20019300F0ABFC28B1019A236872
:105160009A4211D103B030BD0DF1010201216E2030
:1051700000F09EFC0028F1D19DF800209DF8013040
:1051800043EA02232B80E9E7FDF7EAFA000B00204F
:1051900070B5274D82B02B6801930646012203218A
:1051A0006E2000F0D5FC044630B1019A2B689A427B
:1051B00020463AD102B070BD32464E216E2000F03A
:1051C000C7FC04460028F0D1442E07D00246B72180
:1051D0006E2000F0BDFCB8B10446E6E70122B7211D
:1051E0006E2000F0B5FC0028F6D1224603216E2087
:1051F00000F0AEFC0028EFD1032211216E2000F058
:10520000A7FC78B10446D0E7224603216E2000F0C7
:105210009FFC0028E0D10A2211216E2000F098FCAA
:105220000028D9D1034B1E71BFE7FDF799FA00BFE3
:10523000000B00201CCB002000000000000000003C
:105240002DE9F04F8FB0DFF80084DDF860C0D8F8AA
:1052500000400D940CF1FF355C1EB3F5207F9DF8E6
:1052600064909DF868B00C44154400F21282BCF5BD
:10527000F07F00F20E82B1F5207F0E4600F212821E
:10528000B2F5F07F174600F21082A14280F004824E
:10529000B4F5207F00F20082AA4280F00082B5F5CA
:1052A000F07F00F2FC81B9F1400F824600F0B0813E
:1052B000B9F1800F23D0B9F1200F00F09C810023B9
:1052C000CDE90033BBF1400F2FD0BBF1800F00F0D0
:1052D000CB81BBF1200F00F0B9810023CDE902336F
:1052E000002203216E2000F033FCA0B30D9AD8F801
:1052F00000309A4240F0E2810FB0BDE8F08F9A078B
:1053000040F0D681CC4A8C085900661CA2FB0101F2
:10531000A2FB030204EB930406EBD2030093BBF160
:10532000400F06EBD1030193CFD11CF0010F40F0E9
:10533000C281C14B7D084FEA4C026F1CA3FB0212D5
:10534000A3FB0C1307EB9303029307EB920305EB0C
:105350005C050393C4E702465B216E2000F0F8FB76
:105360000028C3D15046FFF713FF0028BED10246E4
:1053700003216E2000F0ECFB0028B7D1C6F3072311
:105380001A4608216E20049300F0E2FB0028ADD1FC
:10539000F3B21A4609216E20059300F0D9FB0028CC
:1053A000A4D1C7F307231A460A216E20069300F002
:1053B000CFFB00289AD1FBB21A460B216E2007932F
:1053C00000F0C6FB002891D1C4F307231A460C2134
:1053D0006E20089300F0BCFB002887D1E3B21A4688
:1053E0000D216E20099300F0B3FB00287FF47EAFFF
:1053F000C5F307231A460E216E200A9300F0A8FB7E
:1054000000287FF473AFEBB21A460F216E200B9386
:1054100000F09EFB00287FF469AF049A35216E20CE
:1054200000F096FB00287FF461AF059A36216E20CC
:1054300000F08EFB00287FF459AF089A37216E20C8
:1054400000F086FB00287FF451AF099A38216E20C6
:1054500000F07EFB00287FF449AF069A39216E20C8
:1054600000F076FB00287FF441AF079A3A216E20C6
:1054700000F06EFB00287FF439AF0A9A3B216E20C2
:1054800000F066FB00287FF431AF0B9A3C216E20C0
:1054900000F05EFB00287FF429AF009B3D21C3F3A1
:1054A00007226E2000F054FB00287FF41FAF9DF808
:1054B00000203E216E2000F04BFB00287FF416AF49
:1054C000019B3F21C3F307226E2000F041FB00281F
:1054D0007FF40CAF9DF8042040216E2000F038FBD3
:1054E00000287FF403AF029B4121C3F307226E2003
:1054F00000F02EFB00287FF4F9AE9DF80820422131
:105500006E2000F025FB00287FF4F0AE039B4321C2
:10551000C3F307226E2000F01BFB00287FF4E6AEE9
:105520009DF80C2044216E2000F012FB00287FF42F
:10553000DDAE012203216E2000F00AFB00287FF47B
:10554000D5AE4A4693216E2000F002FB00287FF47E
:10555000CDAE5A4694216E2000F0FAFA00287FF46E
:10556000C5AE012203216E2000F0F2FA00287FF47C
:10557000BDAE0134A31B07EE103ADFED307AB8EE72
:10558000477ABAF1440F77EEC77A00F09980B0EE0F
:10559000006AF2EE006AE7EE066A77EEA77AB0EEEE
:1055A000667A67EE877ADFED266A87EEA67AFCEEEA
:1055B000C77ACDED007A009B9521C3F307226E20B8
:1055C00000F0C6FA00287FF491AE9DF800209621E5
:1055D0006E2000F0BDFA00287FF488AE194B01352B
:1055E000EF1BA41B5F801C8083F804A083F8059048
:1055F00083F806B07AE610495A00A1FB030306EBD4
:105600005303A1FB0212009306EB5203019359E6E8
:10561000D9074DD4084A74085900661CA2FB010141
:10562000A2FB030204EB530406EB9203009306EB88
:105630009103019346E600BFABAAAAAA0000224448
:105640000000A3441CCB0020000B0020244A4FEA9A
:105650004C03A2FB0C1CA2FB032307EB530307EB39
:105660005C02029203933BE61CF0030F23D11C4B18
:10567000BD084FEA4C026F1CA3FB0212A3FB0C13E4
:1056800007EBD303029307EBD20305EB9C050393CF
:1056900026E66FF0070029E66FF0030026E66FF0BC
:1056A000040023E66FF0010020E66FF002001DE623
:1056B0006FF005001AE66FF0060017E6FDF750F8E8
:1056C000F2EE006A37EE267ADFED066A67EE277A99
:1056D00087EEA67AFCEEC77ACDED007A6BE700BFC5
:1056E000ABAAAAAA000024440000000000000000A9
:1056F00030B5164C83B0236801930546002302227F
:1057000003216E208DF8033000F022FA28B1019AAF
:1057100023689A4218D103B030BD0DF10302042171
:105720006E2000F0C5F90028F1D19DF80320012D6D
:105730000CBF02F0FB0242F0040204216E208DF83F
:10574000032000F005FAE2E7FDF70AF8000B00205D
:10575000F0B51A4C83B005462368019300200E462D
:105760001746FFF7C5FF28B1019A23689A4222D154
:1057700003B0F0BD024603216E2000F0E9F90028D5
:10578000F2D12A4623216E2000F0E2F90028EBD165
:10579000324624216E2000F0DBF90028E4D1019A82
:1057A00023689A4207D13A4625216E2003B0BDE80E
:1057B000F04000F0CDB9FCF7D3FF00BF000B002094
:1057C00030B5164C83B023680193054600230222AE
:1057D00003216E208DF8033000F0BAF928B1019A48
:1057E00023689A4218D103B030BD0DF103020421A1
:1057F0006E2000F05DF90028F1D19DF80320012D05
:105800000CBF02F0FC0242F0030204216E208DF86E
:10581000032000F09DF9E2E7FCF7A2FF000B002057
:1058200030B5114C87B020237822F02125680092F2
:10583000CDE90133B422A02302200595FFF700FD36
:105840000020FFF755FF502240214620FFF780FF40
:10585000059A23689A4205D1012007B0BDE830407F
:10586000FFF7AEBFFCF77CFF000B0020000000003C
:1058700010B50A4B0A4A1988146858881B7982B0F7
:10588000442B019400FB01F00199136818BF4000FC
:10589000994201D102B010BDFCF762FF1CCB002081
:1058A000000B0020000000000000000000000000CD
:1058B00030B583B002A80D4D00242B6820F8064DAA
:1058C0000193FFF73DFC68B9BDF8020048F23004CF
:1058D000001BB0FA80F04009019A2B689A4203D16C
:1058E00003B030BD2046F7E7FCF73AFF000B00207D
:1058F00010B5164C82B02368019303291AD00F29E2
:1059000005D0019A23689A421DD102B010BD202310
:1059100083F3118809F06CFB08F0D2FA01210C48DE
:105920000AF026F808F0ECFA09F07AFB002383F37A
:105930001188E6E7202383F3118809F059FB08F06A
:10594000BFFA0221EBE7FCF70BFF00BF000B0020C2
:1059500024CB002000000000000000000000000038
:1059600000B5094A094B11681B6083B00191019988
:105970001268914206D10649064803B05DF804EB6F
:105980000BF02EB9FCF7ECFE000B002024CB00201E
:10599000900102088429012000000000000000009E
:1059A00070B5164E16483368154D82B005224FF477
:1059B0008071019310F0BCFB20246B6983F4807329
:1059C0006B61012008F074FF631E13F0FF04F4D133
:1059D0004FF4807140F206222983094810F0A8FB99
:1059E000019A33689A4206D10649074802B0BDE8D9
:1059F00070400BF0E5BAFCF7B3FE00BF000B0020CF
:105A00000004024050020208082C0120000000009F
:105A100000B50C4A0C4B1278196883B0012A019129
:105A2000019A1B6804D09A4209D103B05DF804FBC7
:105A30009A4204D103B05DF804EBFFF7B1BFFCF765
:105A40008FFE00BF082C0120000B0020000000008A
:105A500000B5084B83B01A680192019A1B689A42FC
:105A600005D1054803B05DF804EB0BF0F1BAFCF783
:105A700077FE00BF000B0020082C01200000000072
:105A800010B5084C0848236882B001930BF028FB3E
:105A9000019A236805499A42086001D102B010BDFD
:105AA000FCF75EFE000B0020082C012028CB002014
:105AB0002DE9F041224C234E88B0002335688DF843
:105AC0001830804620468DF81410174607950BF0C5
:105AD000F7FB2378012B0CD00420012306AACDE983
