:020000040800F2
:1000000000040020C1010008C1CF0008C1CF0008D2
:10001000C1590008C1CF0008C1CF0008C1CF0008F6
:10002000C1CF0008C1CF0008C1CF000881F400088B
:10003000C1CF0008C1CF0008C1CF0008F17A010884
:10004000C1CF0008213B0108B13C0108013D010876
:10005000C1CF0008C1CF000861380108B1380108DC
:100060000139010851390108A1390108B12A0108F3
:10007000012B0108512B0108A12B0108F12B0108CC
:10008000412C0108912C0108A1350108313F0108DC
:10009000A13F01085140010801410108F13901085F
:1000A000C1CF0008C1CF000841740108C1CF0008CA
:1000B000B1760108F176010831770108B1560108DF
:1000C000F1570108C1CF0008C1CF0008C1CF000817
:1000D000C1CF0008C1CF0008C1CF0008B17B010823
:1000E000813A0108713B0108C13B0108C1CF0008FA
:1000F000C1CF0008C1CF0008C1CF0008E12C010822
:10010000C1CF00088146010871770108C1CF0008FE
:10011000C1CF0008C1CF000801740108C1CF000899
:10012000312D0108812D0108D12D0108212E010852
:10013000712E0108C1CF0008113C0108C1CF000891
:10014000C1CF0008C1CF0008C1CF0008F16B010882
:10015000C12E0108112F0108612F0108C1CF00082D
:10016000C1CF0008C1CF0008C1CF0008C1CF00082F
:10017000613C0108C1CF0008012F0008C1CF000871
:10018000C1CF0008C1CF0008C1CF0008C1CF00080F
:10019000C1CF0008C1CF0008C1CF0008C1CF0008FF
:1001A000C1CF0008C1CF0008C1CF0008C1CF0008EF
:1001B000C1CF0008C1CF0008C1CF0008C1CF0008DF
:1001C00072B62E4880F3098840F20000CCF200009D
:1001D0004EF63471CEF20001086040F20000C0F229
:1001E000F0004EF68851CEF2000108604FF000009A
:1001F000E1EE100A4EF63C71CEF2000108600620D6
:1002000080F31488BFF36F8F17F01AFE4FF055304C
:100210001B491C4A91423CBF41F8040BFAE71A49BA
:10022000164A91423CBF41F8040BFAE71749184AB5
:10023000184B9A423EBF51F8040B42F8040BF8E702
:1002400000201549154A91423CBF41F8040BFAE7DA
:100250000CF09EFE124C134DAC4203DA54F8041B12
:100260008847F9E702F024FC0F4C104DAC4203DA4A
:1002700054F8041B8847F9E70CF09ABE00080020E8
:100280000000002000040020000400209813020851
:1002900000080020F4180020F8180020E057012082
:1002A000C0010008C0010008C0010008C00100082A
:1002B0002DE9F04F2DED108AC1F80CD0D0F80CD0FC
:1002C000BDEC108ABDE8F08F0CF0BAFF0EF058F8C4
:1002D000002383F311882846A04700200DF088FDF5
:1002E0000EF036F80CF08CFF0DF0AAFB0CF0A8FF16
:1002F0000EF046F800DFFEE70000000000000000FE
:100300002DE9F843544B80461A68544882422DED3B
:10031000028B1BD052490B68DA0405D40A6842F4F8
:1003200080530B60012000E000204E4A4E491160CE
:1003300013684A4A934208D147490B6030B1484894
:10034000036823F48052026000E0FEE798ED018A22
:10035000B5EE408A0021F1EE10FAC8F81C10C8F87A
:100360001810C8F81410C8F81010C8F82810C8F8E9
:100370002410C8F8201029D0DFED3C7A28EE270A97
:1003800010EE100A00F0D8FF044618EE100A0D46D1
:1003900000F0D2FF0646B8F800000F4600F0BAFFA2
:1003A0002BA3D3E9002301F04DF902460B4630465A
:1003B000394600F063FE02460B462046294601F00E
:1003C00041F901F055FAA8F82C0001E0A8F82C102A
:1003D00098ED028AB5EE408AF1EE10FA26D0B8F810
:1003E00000904FEA092000F095FF044618EE100A2D
:1003F0000D4600F0A1FF16A3D3E9002300F0F8FF9B
:10040000064648460F4600F085FF02460B4630463A
:10041000394600F033FE02460B462046294601F0DD
:1004200011F901F025FAA8F82E0002E00020A8F842
:100430002E00B8F800204FF47A73B2FBF3F1A8F85D
:100440003010BDEC028BBDE8F88300BFAFF3008035
:100450001F85EB51B81E1940F8180020CDB5E8B53E
:100460003038024000300240C2A507F4000080434B
:100470002DE9F04F9BB083461992A94A1891A948DB
:100480001168814200D0FEE79E6AB3F80CC09F69F4
:100490009A8DD98D039603261C6A5D6A059706928C
:1004A00006FB0CF74FEA8C0206264FEA4C000B9134
:1004B0000E97052106FB0CF70F9207220294049574
:1004C0000D90119701FB0CF04FEACC0602FB0CF1EA
:1004D00000271D695C69D3F81CA010901291179633
:1004E0000197188EDDF80490814580F20A818E48CC
:1004F0009BF800601BF80C7010F80690C25DA144D8
:100500008419511994F8008194F8002201EB4808ED
:10051000CDF81C80DDF834801BF80860855DC719B4
:10052000A9180E9A97F800411BF8022097F800725C
:1005300001EB4405815C0895CC1981190F9E91F857
:10054000008191F8007204EB48081BF80640CDF8D2
:1005500024808218055D92F8006192F80022E91962
:1005600001EB460505EB0807DDF8408015971BF801
:1005700008700A950419C15D94F8005194F800427E
:10058000DDF81C808E1806EB4501119D089A1BF8BA
:1005900005508E18C719425D1696161997F8002156
:1005A00006EB42029044CDF85080129C97F80072FE
:1005B0001BF804604519845DE41995F8007195F8FD
:1005C0000052801904EB47044FF01C0804EB0907A4
:1005D00090F80061139708FB09AADDF81C800C94C1
:1005E0000AEB0209152705EB460490F8005207FBB9
:1005F0000890099FDDF820900A2606FB070A0F27BE
:1006000007FB09A04FF00308DDF8289008FB010064
:100610004FF0060A0AFB0900009015984FF03009C8
:1006200009FB00FADDF858902E2000FB09A0824655
:100630000598824413984FF0240909FB00AA1498E6
:100640004FF02A0909FB00AA0898DDF8249008FB5E
:1006500000F8062000FB0988DDF81C9008EB090073
:1006600007FB01010A9F0C98DDF8009006FB0718B4
:100670001C2606FB008115270B9807FB021205922A
:10068000A9F5003868B1029E049FCDF8108006EBF2
:100690000801CE1B46434FF4807296FBF2F00290A5
:1006A0008046069961B1039E08FB01F8C1F5807789
:1006B00006FB07894FF4807299FBF2F003908046A5
:1006C000199901FB08F7002F02DD0837381103E004
:1006D000083F102697FBF6F047F6BC72019E1349BF
:1006E000189FDDF85C809042A8BF1046DA897243FB
:1006F0008842A8BF0146013627F81210C34401966C
:10070000EFE61D615C61029D059C1D629C61039D7D
:10071000049CC3F81CA05C629D621BB0BDE8F08F16
:10072000F8180020CDB5E8B5000800204480FFFF90
:100730002DE9F04FA1B0C74C1F92C74A1E91116816
:10074000A14200D0FEE79F6A9A69998DDC8D0497DB
:100750009F89069207910F940322052106241D6AA2
:100760005E6A03957A4379437C43129214911594FF
:10077000072209210A24794305964FEA47084FEAE0
:1007800087097A434FEAC70A7C431E695D69D3F83B
:100790001CB01891CDF84480CDF84C901692CDF84D
:1007A0005CA01D94002102911A8E0299914280F260
:1007B0005981AA4A047812F80490A944C55D111918
:1007C00012F8058091F8004191F800A2464406EB2A
:1007D0004406119C0896045D5519165D95F800C1F4
:1007E00095F8005206EB0A0808EB4C0ADDF8488041
:1007F000CDF824A010F80810DDF84C80565C1419D0
:1008000006EB050A10F8085094F800C1565D94F8FC
:10081000004251180AEB4C0C361991F800A1149CB7
:1008200091F80012CDF828C006EB4A08065DCDF815
:100830002C80945DDDF85480551904EB010A95F87D
:10084000004195F800520AEB44010C9110F8081091
:100850009619545C641996F8005104EB45040D9404
:10086000169D96F80062DDF824A0DDF85C80A444B3
:10087000445DCDF86CC0155D5118AD1991F800615B
:1008800091F8001205EB460505EB0A060E9510F8E7
:1008900008501C961419565DDDF860A0711894F884
:1008A000006194F8004201EB460C08990CEB01063C
:1008B0001A9610F80A605519915D9219091995F860
:1008C000004192F8006195F8005201EB44012D249B
:1008D00001EB090804FB09BB10910899CDF864806D
:1008E0000BEB0C09DDF8288005EB460592F8006259
:1008F000242202FB019A152404FB08A9DDF824A098
:100900000C994FF01C0B0BFB0A994FF00A08DDF80D
:100910002CA008FB01994FF00F0B0E990BFB0A99C5
:100920004FF00308DDF834A008FB01994FF0060BE7
:100930000BFB0A99CDF80490DDF82CA00C994FF030
:100940004B0B51440BFB01F91B994FF0490A0AFB71
:10095000019B0699DDF868900BEB010A4FF03F0B05
:100960001C990BFB09AA4FF0450BDDF864900BFBBB
:1009700001AA4FF0370B0BFB09ABDDF824A00A9955
:1009800008FB0AF84FF00609DDF820A009FB0188F2
:100990000C99D0444FF00F09DDF82CA009FB018819
:1009A0000A21DDF8389001FB0A884FF01C0A0D99E6
:1009B0000AFB098804FB018A109C0F994FF02D094E
:1009C00009FB04A8DDF804A002FB0C820692AAF53C
:1009D0007A3971B1039C0599CDF8149004EB0902A2
:1009E000541A0F9A4FF48071544394FBF1F403941A
:1009F000A146079961B1049CC1F5807209FB01FC15
:100A000004FB02C94FF4807199FBF1F20492914604
:100A10001F9C04FB09F1002902DD10314C1103E099
:100A20001039202291FBF2F447F6BC718C42A8BF2A
:100A30000C46DA890299DDF874804A4308498C42F1
:100A4000A8BF21461E9C24F81210029A4044511C53
:100A5000A9E600BFCDB5E8B5F818002000080020D1
:100A60004480FFFF05981E615D61039E069D049C06
:100A700058629D61C3F81CB01E629C62104621B092
:100A8000BDE8F08F2DE9F04F95B0994C1392994A3B
:100A900012911168A14200D0FEE75E6A1D6A9F6A4A
:100AA0009A69998DB3F82E800C964FF00009D3F80F
:100AB00010C05E69D3F81CB00195029709920A91A3
:100AC000CDF83480CDF80C908B4904780D190C5D6D
:100AD00095F8007295F8008106EB070A067ACDF8C2
:100AE0002CA08F198E5D97F8002202EB4805AC44CC
:100AF000057C97F80081CDF810C04A194D5D92F839
:100B0000009292F8002109EB040A0AEB480C90F8D5
:100B100018A090F82090CDF814C001EB0A0494F8C6
:100B2000007294F80041BF1907EB420801EB09027B
:100B3000CDF8188092F8006292F80021771907EB3F
:100B4000440606EB080C90F8288011F80A70079606
:100B500001EB0805CDF840C095F8004295F800512A
:100B6000E619059F06EB4204E619119690F83060ED
:100B700008948C1911F8097094F80022D219049F76
:100B800002EB4502BD180F9590F8385011F8089007
:100B900094F80041DDF82C808E5D4F1997F800A283
:100BA00097F800710AEB090C0CEB4404DDF818A06F
:100BB00011F805C000941C2505FB082944440A21AE
:100BC000DDF8148001FB0A9906EB4706DDF820A04A
:100BD0000F2707FB0899032101FB0A99DDF81CA0E8
:100BE0004FF0060808FB0A99DDF810A0152101FB5B
:100BF0000A99CB44DDF84490CDF82CB04FF02E0A82
:100C00000AFB09FADDF840904FF0300B0BFB09AA04
:100C10004FF0240B0BFB04A90F9C4FF02A0A0AFB90
:100C2000049B099CDDF81890DDF810A0A344059CF6
:100C300008FB09A8DDF820A04FF0030909FB048890
:100C4000079C07FB0A890A2707FB0498DDF8009038
:100C5000DDF82CA00C9F05FB098501FB02520199D0
:100C60000992AAF500328C180D99DDF82880E51B51
:100C70004D434FF4807195FBF1F40194019F44467C
:100C80007C43029FC8EB010507FB054595FBF1F18D
:100C90000291139C6143002902DD0831091103E030
:100CA0000839102791FBF7F147F6BC75134C129FDA
:100CB0000C92A942A8BF2946039DA142B8BF214674
:100CC00079530C354030C02D03957FF4FDAE099863
:100CD000019C029D9861C3F810C05E61C3F81CB00E
:100CE0001C625A629D62102015B0BDE8F08F00BFF3
:100CF000CDB5E8B5F8180020000800204480FFFFBB
:100D00002DE9F04FA1B084461F92BE4A1E91BE4805
:100D10001168814200D0FEE79E6A9F6905969E8910
:100D2000D98D01967000079703277E431190019893
:100D30009A8D0F9112960521019E08924843B200A8
:100D40001490019E01980199139206277E43072271
:100D5000C700514315961797019E019F1C6A5D6A53
:100D6000169109220A2156434F434FF0000804947C
:100D700006955C691D69D3F81CB018961D97CDF8CF
:100D80000C80188EDDF80C90814580F25A819F49C5
:100D90009CF80000DDF804900F181CF8096097F823
:100DA00000A297F80021085CA2448C198E5D94F88B
:100DB000008294F80041454405EB4207119D0997D4
:100DC0001CF805504A194D5D92F8007292F80081A6
:100DD0003F18129807EB44091CF80040CDF8289002
:100DE00008190C5D90F8007290F80001BF1907EB2C
:100DF0004809DDF84C80CDF82C901CF8089001EBE8
:100E00000902CDF8089092F8006292F80021771953
:100E1000149E1CF80690159E07EB400801EB090094
:100E2000CDF8308090F8005290F800012F1907EBB0
:100E300042081CF80670029DCDF83480CA194E5D38
:100E400092F80042A41904EB40050295DDF82C80CD
:100E5000169E92F80021CF5DA844CDF86C801CF856
:100E6000068011F80950DDF8609001EB080011F8D8
:100E7000088090F8004290F8000166190A9D06EB80
:100E80004204179A0E9466191C961CF802608C197D
:100E90008E5D94F8002294F80041D519099F05EB66
:100EA0004002D5191A951CF809504F194D5D97F855
:100EB000000297F80071404400EB44002D2100EB44
:100EC0000A0401FB0ABB1090099819940BEB020A63
:100ED00006EB470424210B9F01FB00A94FF01508E6
:100EE000DDF828A00D9808FB07964FF01C0B0BFBB4
:100EF0000A69DDF830800A2606FB009A0F27DDF824
:100F0000389007FB08AB4FF0030808FB09BADDF87F
:100F100008B0062000FB0BA9CDF80090DDF834A046
:100F2000DDF830B04FF04B090AEB0B0009FB00FA7B
:100F30001B984FF0490B0BFB00A9079809EB000A1F
:100F4000DDF868901C984FF03F0B0BFB09AA4FF09F
:100F5000450BDDF864900BFB00AA4FF0370B0BFB41
:100F600009ABDDF828A00B9808FB0AF84FF006093A
:100F7000DDF824A009FB00880D9808EB0A0907FB9F
:100F800000980C9FDDF83890029806FB07864FF01A
:100F90001C0A0AFB0968152707FB008610980F9F9B
:100FA0004FF02D0909FB006A01FB02A2DDF800A049
:100FB0000792AAF57A386FB10499069ECDF8188089
:100FC00001EB0800811B79434FF4807291FBF2F72B
:100FD0000497B846089860B1059908FB00F8C0F579
:100FE000807601FB06894FF4807299FBF2F7059732
:100FF000B8461F9800FB08F6002E09DD1036771161
:101000000AE000BFF8180020CDB5E8B500080020C0
:10101000103E202196FBF1F7039ED8891049DDF898
:10102000748047F6BC729742A8BF17468F42A8BF8C
:10103000394670431E9F721C27F81010C444039257
:101040009FE65C61079C049A9C61059E069C1D615D
:10105000C3F81CB01A625C629E6221B0BDE8F08FDA
:101060004480FFFFAFF3008000000000000000009C
:1010700081F0004102E000BF83F0004330B54FEA49
:1010800041044FEA430594EA050F08BF90EA020FB6
:101090001FBF54EA000C55EA020C7FEA645C7FEA49
:1010A000655C00F0E2804FEA5454D4EB5555B8BF6C
:1010B0006D420CDD2C4480EA020281EA030382EADD
:1010C000000083EA010180EA020281EA0303362D6F
:1010D00088BF30BD11F0004F4FEA01314FF4801C42
:1010E0004CEA113102D0404261EB410113F0004F54
:1010F0004FEA03334CEA133302D0524263EB43030B
:1011000094EA050F00F0A780A4F10104D5F1200EA8
:101110000DDB02FA0EFC22FA05F2801841F1000103
:1011200003FA0EF2801843FA05F359410EE0A5F1D7
:1011300020050EF1200E012A03FA0EFC28BF4CF008
:10114000020C43FA05F3C01851EBE37101F00045BE
:1011500007D54FF0000EDCF1000C7EEB00006EEBCB
:101160000101B1F5801F1BD3B1F5001F0CD3490855
:101170005FEA30004FEA3C0C04F101044FEA4452AC
:1011800012F5800F80F09A80BCF1004F08BF5FEA33
:10119000500C50F1000041EB045141EA050130BD13
:1011A0005FEA4C0C404141EB010111F4801FA4F1B6
:1011B0000104E9D191F0000F04BF01460020B1FA0B
:1011C00081F308BF2033A3F10B03B3F120020CDA43
:1011D0000C3208DD02F1140CC2F10C0201FA0CF021
:1011E00021FA02F10CE002F11402D8BFC2F1200C86
:1011F00001FA02F120FA0CFCDCBF41EA0C0190403C
:10120000E41AA2BF01EB0451294330BD6FEA040484
:101210001F3C1CDA0C340EDC04F11404C4F120026F
:1012200020FA04F001FA02F340EA030021FA04F381
:1012300045EA030130BDC4F10C04C4F1200220FAD8
:1012400002F001FA04F340EA0300294630BD21FA16
:1012500004F0294630BD94F0000F83F4801306BFDC
:1012600081F480110134013D4EE77FEA645C18BFD0
:101270007FEA655C29D094EA050F08BF90EA020F67
:1012800005D054EA000C04BF1946104630BD91EA5F
:10129000030F1EBF0021002030BD5FEA545C05D162
:1012A0004000494128BF41F0004130BD14F58004A1
:1012B0003CBF01F5801130BD01F0004545F0FE4115
:1012C00041F470014FF0000030BD7FEA645C1ABF4A
:1012D000194610467FEA655C1CBF0B46024650EA81
:1012E000013406BF52EA033591EA030F41F40021AD
:1012F00030BD00BF90F0000F04BF0021704730B533
:101300004FF4806404F132044FF000054FF0000107
:1013100050E700BF90F0000F04BF0021704730B5C8
:101320004FF4806404F1320410F0004548BF40429D
:101330004FF000013EE700BF42004FEAE2014FEAF2
:1013400031014FEA02701FBF12F07F4393F07F4FCD
:1013500081F06051704732F07F4208BF704793F0D0
:101360007F4F04BF41F40021704730B54FF46074E3
:1013700001F0004521F000411CE700BF50EA0102E6
:1013800008BF704730B54FF000050AE050EA01028F
:1013900008BF704730B511F0004502D5404261EBFF
:1013A00041014FF4806404F132045FEA915C3FF440
:1013B000D8AE4FF003025FEADC0C18BF03325FEADD
:1013C000DC0C18BF033202EBDC02C2F1200300FA8E
:1013D00003FC20FA02F001FA03FE40EA0E0021FAB3
:1013E00002F11444BDE600BF000000000000000050
:1013F00070B54FF0FF0C4CF4E06C1CEA11541DBFAB
:101400001CEA135594EA0C0F95EA0C0F00F0DEF875
:101410002C4481EA030621EA4C5123EA4C5350EA5A
:10142000013518BF52EA033541F4801143F48013AB
:1014300038D0A0FB02CE4FF00005E1FB02E506F03C
:101440000042E0FB03E54FF00006E1FB03569CF091
:10145000000F18BF4EF0010EA4F1FF04B6F5007F97
:1014600064F5407404D25FEA4E0E6D4146EB060609
:1014700042EAC62141EA55514FEAC52040EA5E5092
:101480004FEACE2EB4F1FD0C88BFBCF5E06F1ED83C
:10149000BEF1004F08BF5FEA500E50F1000041EB73
:1014A000045170BD06F0004646EA010140EA020020
:1014B00081EA0301B4EB5C04C2BFD4EB0C0541EA42
:1014C000045170BD41F480114FF0000E013C00F357
:1014D000AB8014F1360FDEBF002001F0004170BD7B
:1014E000C4F10004203C35DA0C341BDC04F1140494
:1014F000C4F1200500FA05F320FA04F001FA05F220
:1015000040EA020001F0004221F0004110EBD370EC
:1015100021FA04F642EB06015EEA430E08BF20EA18
:10152000D37070BDC4F10C04C4F1200500FA04F3BB
:1015300020FA05F001FA04F240EA020001F000414D
:1015400010EBD37041F100015EEA430E08BF20EAC0
:10155000D37070BDC4F1200500FA05F24EEA020E08
:1015600020FA04F301FA05F243EA020321FA04F037
:1015700001F0004121FA04F220EA020000EBD370EE
:101580005EEA430E08BF20EAD37070BD94F0000FEE
:101590000FD101F00046400041EB010111F4801F22
:1015A00008BF013CF7D041EA060195F0000F18BFD3
:1015B000704703F00046520043EB030313F4801F0F
:1015C00008BF013DF7D043EA0603704794EA0C0FC9
:1015D0000CEA135518BF95EA0C0F0CD050EA4106DF
:1015E00018BF52EA4306D1D181EA030101F000415C
:1015F0004FF0000070BD50EA410606BF1046194684
:1016000052EA430619D094EA0C0F02D150EA01368F
:1016100013D195EA0C0F05D152EA03361CBF1046D0
:1016200019460AD181EA030101F0004141F0FE416F
:1016300041F470014FF0000070BD41F0FE4141F4F3
:10164000780170BD70B54FF0FF0C4CF4E06C1CEAF3
:1016500011541DBF1CEA135594EA0C0F95EA0C0FA8
:1016600000F0A7F8A4EB050481EA030E52EA033563
:101670004FEA013100F088804FEA03334FF0805584
:1016800045EA131343EA12634FEA022245EA1115B1
:1016900045EA10654FEA00260EF000419D4208BF62
:1016A000964244F1FD0404F5407402D25B084FEA0F
:1016B0003202B61A65EB03055B084FEA32024FF4BB
:1016C00080104FF4002CB6EB020E75EB030E22BF18
:1016D000B61A754640EA0C005B084FEA3202B6EBD8
:1016E000020E75EB030E22BFB61A754640EA5C0087
:1016F0005B084FEA3202B6EB020E75EB030E22BF17
:10170000B61A754640EA9C005B084FEA3202B6EB17
:10171000020E75EB030E22BFB61A754640EADC00D6
:1017200055EA060E18D04FEA051545EA16754FEA38
:1017300006164FEAC30343EA52734FEAC2025FEA56
:101740001C1CC0D111F4801F0BD141EA00014FF0E5
:1017500000004FF0004CB6E711F4801F04BF0143B6
:101760000020B4F1FD0C88BFBCF5E06F3FF6AFAED2
:10177000B5EB030C04BFB6EB020C5FEA500C50F162
:10178000000041EB045170BD0EF0004E4EEA1131E5
:1017900014EB5C04C2BFD4EB0C0541EA045170BDEC
:1017A00041F480114FF0000E013C90E645EA060E30
:1017B0008DE60CEA135594EA0C0F08BF95EA0C0F5E
:1017C0003FF43BAF94EA0C0F0AD150EA01347FF4A6
:1017D00034AF95EA0C0F7FF425AF104619462CE77D
:1017E00095EA0C0F06D152EA03353FF4FDAE1046E0
:1017F000194622E750EA410618BF52EA43067FF431
:10180000C5AE50EA41047FF40DAF52EA43057FF4C0
:10181000EBAE12E700000000000000000000000036
:101820004FEA410212F5001215D211D56FF4787308
:10183000B3EB625212D94FEAC12343F0004343EAAB
:10184000505311F0004F23FA02F018BF4042704786
:101850004FF00000704750EA013005D111F0004010
:1018600008BF6FF0004070474FF00000704700BFA6
:101870004A0011D212F5001211D20DD56FF478730F
:10188000B3EB62520ED44FEAC12343F0004343EA64
:10189000505323FA02F070474FF00000704750EAAF
:1018A000013002D14FF0FF3070474FF00000704719
:1018B00080F0004002E000BF81F0004142001FBF05
:1018C0005FEA410392EA030F7FEA226C7FEA236C0E
:1018D0006AD04FEA1262D2EB1363C1BFD218414003
:1018E00048404140B8BF5B42192B88BF704710F099
:1018F000004F40F4000020F07F4018BF404211F03C
:10190000004F41F4000121F07F4118BF494292EAA3
:10191000030F3FD0A2F1010241FA03FC10EB0C00CF
:10192000C3F1200301FA03F100F0004302D549425C
:1019300060EB4000B0F5000F13D3B0F1807F06D309
:1019400040084FEA310102F10102FE2A51D2B1F101
:10195000004F40EBC25008BF20F0010040EA0300F6
:101960007047490040EB000010F4000FA2F10102A3
:10197000EDD1B0FA80FCACF1080CB2EB0C0200FA2D
:101980000CF0AABF00EBC25052421843BCBFD0407B
:101990001843704792F0000F81F4000106BF80F4F5
:1019A00000000132013BB5E74FEA41037FEA226CB8
:1019B00018BF7FEA236C21D092EA030F04D092F083
:1019C000000F08BF0846704790EA010F1CBF0020B7
:1019D000704712F07F4F04D1400028BF40F0004014
:1019E000704712F100723CBF00F50000704700F034
:1019F000004343F0FE4040F4000070477FEA22625B
:101A000016BF08467FEA23630146420206BF5FEA2B
:101A1000412390EA010F40F4800070474FF000032B
:101A200004E000BF10F0004348BF40425FEA000CF2
:101A300008BF704743F0964301464FF000001CE09A
:101A400050EA010208BF70474FF000030AE000BFF0
:101A500050EA010208BF704711F0004302D540422E
:101A600061EB41015FEA010C02BF844601460020A0
:101A700043F0B64308BFA3F18053A3F50003BCFABB
:101A80008CF2083AA3EBC25310DB01FA02FC634468
:101A900000FA02FCC2F12002BCF1004F20FA02F26F
:101AA00043EB020008BF20F00100704702F1200262
:101AB00001FA02FCC2F1200250EA4C0021FA02F2C3
:101AC00043EB020008BF20EADC7070470000000012
:101AD00053B94AB9002908BF00281CBF4FF0FF3195
:101AE0004FF0FF3000F074B9ADF1080C6DE904CE91
:101AF00000F006F8DDF804E0DDE9022304B07047E9
:101B00002DE9F047089E04468846002B4BD18A42B7
:101B1000154667D9B2FA82F24AB1C2F1200701FA3A
:101B200002F320FA07F7954047EA030894404FEA8A
:101B3000154E230CB8FBFEF71FFA85FC0EFB178829
:101B400043EA084307FB0CF1994209D9EB1807F166
:101B5000FF3080F01B81994240F21881023F2B44F4
:101B60005B1AA4B2B3FBFEF00EFB103344EA03444D
:101B700000FB0CFCA44509D92C1900F1FF3380F0BF
:101B80000781A44540F2048102382C4440EA074012
:101B9000A4EB0C0400271EB1D4400023C6E9004387
:101BA0003946BDE8F0878B4209D9002E00F0EB8062
:101BB0000027C6E9000138463946BDE8F087B3FA88
:101BC00083F7002F47D18B4202D3824200F2FA8082
:101BD000841A61EB030301209846002EE0D0C6E989
:101BE0000048DDE702B9FFDEB2FA82F2002A40F0D7
:101BF0008F80491B4FEA154E1FFA85F80127B1FB6C
:101C0000FEFC230C0EFB1C1143EA014308FB0CF104
:101C1000994207D9EB180CF1FF3002D2994200F239
:101C2000CD808446591AA3B2B1FBFEF00EFB10140E
:101C300043EA044408FB00F8A04507D92C1900F139
:101C4000FF3302D2A04500F2B6801846A4EB080488
:101C500040EA0C409FE7C7F1200CBB4022FA0CFE83
:101C60004EEA030E01FA07F420FA0CF521FA0CF300
:101C70004FEA1E482543B3FBF8F92C0C08FB193337
:101C80001FFA8EFA44EA034309FB0AF49C4202FA63
:101C900007F200FA07F10BD91EEB030309F1FF303D
:101CA00080F087809C4240F28480A9F1020973444D
:101CB0001B1BADB2B3FBF8F008FB103345EA03443D
:101CC00000FB0AFAA24508D91EEB040400F1FF3319
:101CD0006BD2A24569D90238744440EA0940A0FB9E
:101CE0000289A4EB0A044C45C2464B4654D351D05A
:101CF000002E69D0B1EB0A0564EB030404FA0CFC76
:101D0000FD40FC404CEA0505C6E90054002747E7C2
:101D1000C2F1200320FA03F7954001FA02F021FAFC
:101D200003F34FEA154E3843010CB3FBFEF71FFADD
:101D300085F80EFB173341EA034107FB08F38B429A
:101D400004FA02F407D9691807F1FF3C2FD28B423D
:101D50002DD9023F2944CB1A81B2B3FBFEF00EFB12
:101D6000103341EA034100FB08F38B4207D969189D
:101D700000F1FF3C17D28B4215D902382944C91A09
:101D800040EA07473BE73746304609E70746E7E6BC
:101D90001846FBE64145ABD2B8EB020A69EB0E02EE
:101DA00001381346A4E76046E9E7184695E7674619
:101DB000D1E781467CE702382C4447E7ACF1020CBE
:101DC0002B442FE7384608E73746E9E600000000D5
:101DD000704700BF0000000000000000000000008D
:101DE000844641EA000313F003036DD1403A41D326
:101DF00051F8043B40F8043B51F8043B40F8043BE5
:101E000051F8043B40F8043B51F8043B40F8043BD4
:101E100051F8043B40F8043B51F8043B40F8043BC4
:101E200051F8043B40F8043B51F8043B40F8043BB4
:101E300051F8043B40F8043B51F8043B40F8043BA4
:101E400051F8043B40F8043B51F8043B40F8043B94
:101E500051F8043B40F8043B51F8043B40F8043B84
:101E600051F8043B40F8043B51F8043B40F8043B74
:101E7000403ABDD2303211D351F8043B40F8043B14
:101E800051F8043B40F8043B51F8043B40F8043B54
:101E900051F8043B40F8043B103AEDD20C3205D324
:101EA00051F8043B40F8043B043AF9D2043208D01C
:101EB000D2071CBF11F8013B00F8013B01D30B888E
:101EC00003806046704700BF082A13D38B078DD06C
:101ED00010F003038AD0C3F10403D21ADB071CBF3E
:101EE00011F8013B00F8013B80D331F8023B20F8A8
:101EF000023B7BE7043AD9D3013A11F8013B00F8E1
:101F0000013BF9D20B7803704B7843708B78837068
:101F10006046704700000000000000000000000064
:101F2000A2EB0300704700BF02780B78012A28BF9C
:101F30009A42F5D16DE9044540EA0104CDE9026712
:101F40006FF0000C4FEA447212B380EA010414F0FF
:101F5000070F6AD100F0070420F0070004F0030522
:101F600021F007014FEAC505F0E8042314F0040F3F
:101F7000F1E804670CFA05F462EA040266EA040672
:101F80000AD063EA0403624667EA0407664603E090
:101F9000F0E80423F1E8046782FA4CF582EA0604CB
:101FA000A4FA8CF46CBB83FA4CF583EA0705A5FA16
:101FB0008CF595B950E9022351E9026782FA4CF594
:101FC00082EA0604A4FA8CF483FA4CF583EA070546
:101FD000A5FA8CF52543DBD09CB92DBAB5FA85F46A
:101FE00024F0070427FA04F1DDE9026723FA04F379
:101FF00003F0FF0001F0FF01FDE80445A0EB010044
:10200000704724BAB4FA84F424F0070426FA04F1E1
:10201000DDE9026722FA04F202F0FF0001F0FF019D
:10202000FDE80445A0EB0100704714F0030F3CD11C
:1020300010F0030428D150F8082B51F8083B82FA1D
:102040004CF582EA0305A5FA8CF55DB950F8042C2D
:1020500051F8043C82FA4CF582EA0305A5FA8CF5A6
:10206000002DE8D02DBAB5FA85F424F0070423FA40
:1020700004F122FA04F202F0FF0001F0FF01FDE892
:102080000445A0EB010070474FEAC40420F00300B0
:1020900050F8082B21F0030151F8083B0CFA04F426
:1020A00062EA040263EA0403C9E710F003041AD0E9
:1020B000A1EB040120F00300E40750F8042B06D044
:1020C0000FD28B785FFAA2F4E41A06D12BB1CB7849
:1020D0005FFAB2F4E41A00D11BB920465DF8104B48
:1020E000704701F1040150F8042BCC0721F00301E3
:1020F00051F8043B48D824D222F07F4482FA4CF5B0
:1021000094EA1325A5FA8CF50AD165B951F8043B78
:1021100084EA0204B4EB036F0ED150F8042BEBE712
:102120004FEA132355E035F07F454DD10878FDE89F
:102130000445C0F1000070474FEA126203F0FF034C
:1021400047E002EA1C4482FA4CF594EA1345A5FAEA
:102150008CF50AD165B951F8043B84EA0204B4EB6A
:10216000034F0CD150F8042BEBE74FEA134330E058
:1021700015EA1C4528D10B884FEA124229E04FEAA4
:10218000124203EA1C4324E002F0FF0482FA4CF5F9
:1021900094EA1365A5FA8CF50AD165B951F8043BA8
:1021A00084EA0204B4EB032F09D150F8042BEBE7C7
:1021B0004FEA13630DE015F0FF0F05D10B684FEAEE
:1021C000122223F07F4304E04FF00000FDE80445B5
:1021D000704712BA1BBA82FA4CF482EA0304A4FADA
:1021E0008CF5B5FA85F402FA04F203FA04F34FEA27
:1021F0001260FDE80445A0EB13607047000000008A
:1022000090F800F06DE9024520F007016FF0000C36
:1022100010F0070491F820F040F049804FF00004DE
:102220006FF00700D1E9002391F840F000F10800B9
:1022300082FA4CF2A4FA8CF283FA4CF3A2FA8CF3F1
:102240004BBBD1E9022382FA4CF200F10800A4FA58
:102250008CF283FA4CF3A2FA8CF3E3B9D1E90423AC
:1022600082FA4CF200F10800A4FA8CF283FA4CF3E3
:10227000A2FA8CF37BB9D1E9062301F1200182FA9D
:102280004CF200F10800A4FA8CF283FA4CF3A2FAA3
:102290008CF3002BC6D0002A04BF04301A4612BAB1
:1022A000B2FA82F2FDE8024500EBD2007047D1E9B4
:1022B000002304F00305C4F100004FEAC50514F043
:1022C000040F91F840F00CFA05F562EA05021CBF14
:1022D00063EA050362464FF00004A9E7000000002E
:1022E00001F0FF01102A2BDB10F0070F08D010F8C7
:1022F000013B013A8B422DD010F0070F42B3F6D1CB
:10230000F0B441EA012141EA014122F007047FF0E3
:1023100000070023F0E80256083C85EA010586EA3A
:10232000010685FA47F5A3FA87F586FA47F6A5FA76
:1023300087F68EB9EED1F0BC01F0FF0102F0070282
:1023400032B110F8013B013A83EA010313B1F8D12D
:102350000020704701387047002D06BF354603380E
:10236000073815F0010F07D1013015F4807F02BF47
:10237000013015F4C03F0130F0BC0138704700BF98
:102380004FF0FF3C06E000BF4FF0010C02E000BF41
:102390004FF0010C4DF804CD4FEA410C7FEA6C5C24
:1023A0004FEA430C18BF7FEA6C5C1BD001B050EAC7
:1023B000410C0CBF52EA430C91EA030F02BF90EAB2
:1023C000020F0020704710F1000F91EA030F58BF71
:1023D000994208BF90422CBFD8176FEAE37040F0D3
:1023E000010070474FEA410C7FEA6C5C02D150EA71
:1023F000013C07D14FEA430C7FEA6C5CD6D152EA2C
:10240000033CD3D05DF8040B704700BF84461046F0
:1024100062468C461946634600E000BF01B5FFF7EF
:10242000B7FF002848BF10F1000F01BD4DF808EDBF
:10243000FFF7F4FF0CBF012000205DF808FB00BF90
:102440004DF808EDFFF7EAFF34BF012000205DF8EA
:1024500008FB00BF4DF808EDFFF7E0FF94BF012037
:1024600000205DF808FB00BF4DF808EDFFF7CEFF38
:1024700094BF012000205DF808FB00BF4DF808ED77
:10248000FFF7C4FF34BF012000205DF808FB00BF48
:102490004FEA410C7FEA6C5C02D150EA013C0AD160
:1024A0004FEA430C7FEA6C5C02D152EA033C02D152
:1024B0004FF0000070474FF001007047000000002F
:1024C00070B5294D82B02B6801930E46032841D880
:1024D000DFE800F01A120A02012922D9234A5369BF
:1024E00083F40063536116E0012926D91F4A53691A
:1024F00083F4806353610EE0012918D91B4A5369A4
:1025000083F04003536106E001291CD9174A53693F
:1025100083F020035361019A2B689A4218D102B0CC
:1025200070BD124B4FF4006229B15A83F3E70F4B91
:1025300040220029F9D11A83EDE70C4B4FF4806259
:102540000029F8D0F1E7094B20220029F3D0ECE76D
:1025500000F01EFB0024E0B231460134FFF7B0FF6B
:10256000042CF8D1D7E700BF000B0020000C02407C
:102570002DE9F0410E4D82B02C6801948846044646
:1025800017461E4600F074F908B900F059F9094AD7
:102590000198296804EB44041319884202F8048066
:1025A0005F709E7002D102B0BDE8F08100F0F0FAD9
:1025B000000B0020FC1800200000000000000000BC
:1025C00000B50D4B83B01A68019201280BD90B4955
:1025D0004A6982F004024A61019A1B689A4209D151
:1025E00003B05DF804FB054A042108B95183F3E701
:1025F0001183F1E700F0CCFA000B00200004024048
:1026000000B50E4B83B01A68019201280BD90C4912
:102610004A6982F480424A61019A1B689A420AD14F
:1026200003B05DF804FB064A4FF4804108B95183BA
:10263000F2E71183F0E700F0ABFA00BF000B0020D7
:10264000000C02400000000000000000000000003C
:10265000F0B5104F104C3B6883B0002501932E4617
:102660000021E8B2FFF72CFF00F002F968B1013554
:10267000042D26706670A67004F10304F0D1019A4F
:102680003B689A4204D103B0F0BD00F0D9F8EEE700
:1026900000F07EFA000B0020FC1800200000000073
:1026A00030B5094B094D044607CB83B02B68019325
:1026B000206001982B6861609842A26001D103B04C
:1026C00030BD00F065FA00BFFC180020000B0020B0
:1026D0002DE9F04F4F4B504C1B68A2694F4E5049AB
:1026E000504F514D916185B006F1040803930023CA
:1026F00002939946202383F311880BF029FE0AF0F8
:102700007FFDA36A01930AF09BFD0BF039FE23685D
:10271000A34207D0A2699B6892689A4202D24348BA
:102720000AF0CEFC89F31188202383F311880BF083
:102730000FFE0AF065FD3E4B1B78012B65D00AF0B9
:102740007FFD0BF01DFE2368A34207D0A2699B68A2
:1027500092689A4202D235480AF0B2FC89F3118895
:1027600003F006FC824603F01BFC324B1A784FF054
:10277000FF33012A8346C7E90033BB60BB8140D0E9
:102780004FF06533C6E90033B36028460FF000FC14
:10279000244B224A0C2128460FF07AFC28460FF0E1
:1027A00037FCCDF80890029B42F20F72934206D894
:1027B00000BF029B01330293029B9342F8D94FEA78
:1027C0002B214FEA2A224FF0FF333170B27086F886
:1027D00001B086F803A02846C8E90033A8F80830FD
:1027E0000FF0D6FB0F4B0D4A0E2128460FF050FC80
:1027F00028460FF00DFC019800F132010BF078FA39
:1028000078E70648FFF74CFFBFE703200AF090FF88
:1028100095E700BF000B002088010120981E0020D2
:1028200070DE010808190020E40E012050DE0108C6
:10283000A71E0020A61E00200000000000000000CF
:1028400000B5084B08491A6883B001200192019A2B
:102850001B6808709A4202D103B05DF804FB00F0D7
:1028600097F900BF000B0020A61E0020000000000A
:1028700000B5074B07491A68087883B00192019A9E
:102880001B689A4202D103B05DF804FB00F080F9A6
:10289000000B0020A61E0020000000000000000029
:1028A00010B50D4C0D4923680D4884B003930FF00B
:1028B00027FB0023009340220A4B0B484FF4AF61E3
:1028C0000BF07EF9039A236808499A42086001D107
:1028D00004B010BD00F05CF9000B002060DE0108C0
:1028E000E40E0120D126000820190020181900202C
:1028F0002DE9F04F664B674F1B68DFF8A0A1DFF8AA
:10290000A091A7B001202593FFF75AFE0120FFF701
:1029100077FE04F095FB00252E46202383F31188D3
:102920000BF016FD0AF06CFCD7F828800AF088FC42
:102930000BF026FD3B68BB4207D0BA699B689268E2
:102940009A4202D254480AF0BBFB002484F3118857
:1029500022462146204601F0D3F986F00106E0B276
:1029600031460134FFF7ACFD042CF8D1062D0FD809
:10297000DFE805F004826B775F5347000023E8B27D
:102980001A460A210135FFF7F3FD042DF6D1012582
:102990005146484609F07CF8802205A909F0E0F884
:1029A0000DF1020B0024204604F06AFB0134082CD0
:1029B0002BF8020FF7D1BDF81030BDF81220BDF88A
:1029C0000E0040F226249B0003EBC203A4EB400060
:1029D000C01A00B203F05CFABDF80600BDF808208A
:1029E000BDF804308000A4EB420400EBC300201AC1
:1029F00000B203F035FA08F1640140460BF078F9B3
:102A00008BE700240A23E0B2194600220134FFF7C5
:102A1000AFFD042CF6D10025BAE700240A23E0B26A
:102A2000194600220134FFF7A3FD042CF6D1062538
:102A3000AEE700240A23E0B21A4600210134FFF772
:102A400097FD042CF6D10525A2E700240022E0B270
:102A500011460A230134FFF78BFD042CF6D1032520
:102A600096E700250A22E8B2114600230135FFF758
:102A70007FFD042DF6D18BE700240023E0B2194638
:102A80000A220134FFF774FD042CF6D102257FE7FA
:102A9000000B00208801012080DE0108C0DE010853
:102AA000C01E002000000000000000000000000028
:102AB00000B52C4B2C4C1B682C4D83B001930CF0B3
:102AC0003FFD0AF095FA02F023FF294A29492A48D6
:102AD00008F06EFF00221146204609F0B1F8FFF71A
:102AE000B7FD0020FFF76CFD0020FFF789FD04F023
:102AF000D7FB01F0A5F901F04BF903F0E1F904F07F
:102B00004FFA03F065FB00F09BFC02F069FB03F059
:102B1000D7FE02F06DFEFFF7C3FE08F049F904F09E
:102B2000F7FA002000F04CFD04F01AFB01F0C8F8A1
:102B30000AF066F903F034FC0AF00AFA0F4A21465B
:102B4000284609F07DF8284617F032FB0C4920464C
:102B500004F0CEFC17F0FCFA0A4817F0B1FAFFF7C0
:102B6000C7FE00BF000B0020CC1E0020A81E0020C6
:102B7000040B00200C0B0020C01E0020B0DE01085A
:102B800000000E08080F00200000000000000000F8
:102B900000B5084B83B01A680192019A1B689A42EB
:102BA00005D1054803B05DF804EB0AF089BAFFF7D8
:102BB000EFFF00BF000B002090DE010800000000C6
:102BC00030B54368174D1A68296883B004460191EF
:102BD00012B304220270DA681B6852081146984743
:102BE0002378042B18D0202383F311880BF0E0FB0B
:102BF0000AF046FB04F1080000210BF071F90AF01D
:102C00005FFB0BF0EDFB002383F31188019A2B6827
:102C10009A4204D103B030BD02232370E3E7FFF7EB
:102C2000B7FF00BF000B0020000000000000000004
:102C300070B5194D82B02B68019311F00C0F0C4642
:102C4000064622D114F0200109D0019A2B689A423D
:102C50001FD1304602B0BDE87040FFF7B1BFE306B8
:102C60000DD57268136853B1019C2868844210D155
:102C7000D2683046520802B0BDE870401847019A49
:102C80002B689A4205D102B070BD04480AF018FAC8
:102C9000D8E7FFF77DFF00BF000B0020F0DE010842
:102CA00070B5194D82B02B68019311F00C0F0C46D2
:102CB000064622D114F0200109D0019A2B689A42CD
:102CC0001FD1304602B0BDE87040FFF779BFE30680
:102CD0000DD57268136853B1019C2868844210D1E5
:102CE000D2683046520802B0BDE870401847019AD9
:102CF0002B689A4205D102B070BD04480AF0E0F991
:102D0000D8E7FFF745FF00BF000B0020F0DE010809
:102D100030B50F4D0F4C2A680F4B83B020460192FF
:102D20004FF6FF721A8000F0B3F90C4B01992A6834
:102D30000B480C4D2562636203F1240591420A4B56
:102D40002363C4E90A5001D103B030BDFFF720FF6F
:102D5000000B0020FC1E0020E41E00207807020863
:102D60001E010100003C0040460001000000000080
:102D700070B52C4D03782A6882B0012B044601926D
:102D800024D06368E26A5989236B22F4F04223F469
:102D9000F043090544BF42F4205243F42053C4E9F0
:102DA0000B23236A00221A606268236A52891A6020
:102DB000236A03225A60226A136843F040031360B7
:102DC000019A2B689A422BD102B070BD164EB042C8
:102DD0000AD0D4E9083212680C339360A26A236ADD
:102DE00012680C339360CCE70346104A406A0A210C
:102DF00010F016F980B9B06A0B4B0D4A0A2110F099
:102E00000FF928B90B4A136C43F400431364E0E74D
:102E100009480AF055F9F5E707480AF051F9EAE7D9
:102E2000FFF7B6FE000B0020FC1E0020A12C0008BE
:102E3000312C000800380240D0DE010800000000FC
:102E400070B5456A174C2D68266882B00196EB6014
:102E5000436A1B685960456AC36A2D6843F48063FE
:102E60002B60836A1B68DA60836A1B685960826A18
:102E7000036B126843F480631360436A1A68136833
:102E800043F001031360836A1A68136843F0010377
:102E90001360019A23689A4201D102B070BDFFF716
:102EA00077FE00BF000B00200000000000000000C3
:102EB00030B5104D81682B680F4A83B001930B68C1
:102EC00023F001030B608168946A03E0936A1B1B83
:102ED000C72B09D8086810F00100F7D1019A2B68B8
:102EE0009A4204D103B030BD4FF0FF30F6E7FFF750
:102EF0004FFE00BF000B00208801012000000000F1
:102F0000F0B5284D83B02B6801930BF0E9F90AF076
:102F1000F7F9254B1E69F20715D55A69234C42F083
:102F200001025A612778BB1F012B2AD90522636849
:102F300022701B680BB120469847042F27D0022F20
:102F400025D003232370B30710D5174A174C5369B4
:102F500043F0020353612378032B1DD06368DB68C1
:102F60000622227013B10121104898470AF0F0F9A7
:102F7000019A2B689A4213D103B0BDE8F0400CF0DF
:102F80009FBA019A2B689A420AD103B0F0BD02237E
:102F90002370B307EAD5D8E72046FFF789FFDDE7BE
:102FA000FFF7F6FD000B002000000550E81E002092
:102FB00030B50B4D0B4C2B6883B02046019300F0CD
:102FC00037F8019A2B680848084D094921619A424F
:102FD000C4E9025001D103B030BDFFF7D9FD00BFF5
:102FE000000B0020E81E0020140802080000055015
:102FF0001E55030200000000000000000000000059
:1030000000B5074B83B01A680192019A1B689A4277
:1030100004D103B05DF804EBFFF7CABFFFF7B8FDBA
:10302000000B002000000000000000000000000075
:1030300000B5084B83B01A68019201220270019A10
:103040001B6800219A42416002D103B05DF804FB85
:10305000FFF79EFD000B00200000000000000000B4
:1030600000B5074B83B01A680192019A1B689A4217
:1030700004D103B05DF804EBFFF74ABEFFF788FD0B
:10308000000B002000000000000000000000000015
:1030900000B50A4B83B01A680192012202700199AF
:1030A0001A6800239142C0E9013305D10C3003B006
:1030B0005DF804EB0BF084BAFFF76AFD000B00200B
:1030C00070B51E4D82B02B6801930E46044670B356
:1030D00069B3202383F311880BF03AF90AF090F8D2
:1030E0002378013B012B02D9154809F0E9FF20465E
:1030F0006660FFF73DFE022323700AF0A1F80BF093
:103100003FF9104B1A689A4204D0996993688A680B
:103110009A4208D3002383F31188019A2B689A42BC
:1031200009D102B070BD084809F0CAFFF2E70448AF
:1031300009F0C6FFCDE7FFF72BFD00BF000B002015
:1031400010DF01088801012000DF010800000000F5
:103150002DE9F041214D82B02C6801940E46904635
:103160001F46044600B171BB1D4809F0A9FF20238A
:1031700083F311880BF0ECF80AF042F82378022B65
:1031800002D0174809F09CFF03203B4642463146D7
:1031900020702046FFF754FE0AF052F80BF0F0F8CA
:1031A000104B1A689A4204D0996993688A689A42C7
:1031B0000ED3002383F31188019A2B689A420BD116
:1031C00002B0BDE8F081002BCED0002ACFD1CBE7F2
:1031D000054809F075FFECE7FFF7DAFC000B00206B
:1031E00020DF01088801012000DF01080000000045
:1031F00000B5084B83B01A680192019A1B689A4285
:1032000005D1054803B05DF804EB09F059BFFFF79D
:10321000BFFC00BF000B002040DF010800000000E1
:1032200070B5194A194C1578236882B001934FF490
:10323000B47303FB00F665B1019A23689A4220D16A
:1032400013481449B1FBF6F102B0BDE870400CF030
:1032500067BF114911484D600125157080224283D6
:103260000F4A10480CF0A4FD019A23689A4208D135
:1032700007480849B1FBF6F102B0BDE870400CF018
:10328000B7BFFFF785FC00BF541F0020000B0020D4
:103290002C0F012000BD0105441F0020000C02403E
:1032A00050DF0108D80B01200000000000000000E2
:1032B000F0B51A4D1A4C2E78276883B0019717463F
:1032C00066B1019A23689A4226D116481649B1FB85
:1032D000F7F103B0BDE8F0400CF022BF134EDFF869
:1032E00054C0736002464FF0010E80200B4685F8F3
:1032F00000E03146ACF81A000D480CF059FD019A77
:1033000023689A4208D107480749B1FBF7F103B097
:10331000BDE8F0400CF06CBFFFF73AFC541F0020F2
:10332000000B00202C0F012000BD0105441F0020D0
:10333000D80B0120000C024000000000000000003B
:10334000F0B5114C83B02368019305460F480E4633
:1033500017460CF085FF0E480CF0BAFD33462A469E
:103360000C490B480CF0ECFC019A23689A4208D1F6
:1033700006480949B1FBF7F103B0BDE8F0400CF095
:103380000FBFFFF705FC00BF000B00202C0F012032
:10339000D80B0120441F002000BD010500000000E3
:1033A00010B50C4C0C4B22680C4882B00192802264
:1033B0001A830CF055FF0A480CF08AFD019A236825
:1033C000084900209A42087001D102B010BDFFF7F1
:1033D000DFFB00BF000B0020000C02402C0F01207F
:1033E000D80B0120541F0020000000000000000046
:1033F00010B50C4C0C4B22680C4882B00192802214
:103400001A830CF055FF0A480CF012FD019A23684C
:10341000084900209A42087001D102B010BDFFF7A0
:10342000B7FB00BF000B0020000C02402C0F012056
:10343000D80B0120541F00200000000000000000F5
:1034400070B5154D154A164B2968164E9E6082B010
:1034500000244FF4006010800191947011461248CE
:103460005C6001221A60DC600CF022FC0F4B104EF5
:1034700010485C60202219469A60DC601E600CF0E7
:1034800007FE019A2B689A4204D102B0BDE8704051
:10349000FFF7AEBFFFF77CFB000B0020401F0020B2
:1034A000441F0020F1310008D80B0120301F0020FC
:1034B00000BD01052C0F01200000000000000000ED
:1034C0002DE9F04F394A3A4B126883B0012401923A
:1034D0001C70002963D04FF00008364CC246C3462A
:1034E000C1464746C446434647F6FF7E1DE0AB450E
:1034F000A8BFAB46024432F9026CB2F90450B442A0
:10350000B8BF3446B645A8BFB6464D4545DCA845CC
:10351000A8BFA846B2F90220BA420EDC0433924595
:103520009BB2A8BF924699420CD95D1C6A0030F943
:1035300015506545DBDDAC46DCE704339BB29942B0
:103540001746F2D8A4EB0E04ACEB0B0CA7EB0A0762
:10355000A9EB0808A4B21FFA8CFCBFB21FFA88F8C6
:10356000154A12491480019C0968144BA2F802C044
:103570009780B0F8F8C4B0F8FA64A2F80680B0F802
:10358000FC54B0F8FE24A3F800C08C425E809D80FD
:10359000DA8008D103B0BDE8F08FA946BAE78846C3
:1035A0000F468C46DCE7FFF7F3FA00BF000B002064
:1035B000551F00200080FFFF601F0020581F0020C3
:1035C00070B53F4B3F4C1A78236882B0012A0193B3
:1035D00005D0019A23689A4270D102B070BD3A4971
:1035E0003A4B4D6C45F480354D644E6A002546F4E7
:1035F00080364E624D621D61DD60196A21F0010165
:103600001962996921F003019961996941F00101F9
:103610009961996921F0F0019961196A21F00A0113
:103620001962996921F00C019961996821F0700182
:103630009960996841F050019960996821F480314E
:1036400021F007019960996841F0070199601968B4
:1036500021F440711960DA629D625A61196A21F0A1
:1036600010011962996921F440719961996921F0F9
:10367000807121F4E0419961996941F4C0419961F7
:10368000196A21F0A00119629A639A6942F40062F2
:103690009A611A6A22F480621A621A6A42F011026E
:1036A0001A621A6842F001021A6020B1009068465E
:1036B00000F076F98DE7064B0093F8E7FFF768FA1C
:1036C000C40E0120000B00200038024000400140E1
:1036D000C1340008000000000000000000000000ED
:1036E00070B5114C82B0236801930E461546202315
:1036F00083F311880AF05CFE09F0C2FD0B4B0C4805
:10370000C3E900650AF01CFF09F0DAFD0AF068FE63
:10371000002383F31188019A23689A4201D102B0F1
:1037200070BDFFF735FA00BF000B00207834002091
:10373000681F0020000000000000000000000000E2
:1037400070B5114C82B0236801930E4615462023B4
:1037500083F311880AF02CFE09F092FD0B4B0C4804
:10376000C3E900650AF0ECFE09F0AAFD0AF038FE94
:10377000002383F31188019A23689A4201D102B091
:1037800070BDFFF705FA00BF000B00205C3200207F
:10379000681F002000000000000000000000000082
:1037A0002DE9F04F624B63499A69634B916185B093
:1037B0001B6803935E4B9B6993F821305B0700F114
:1037C000AD805E480AF084FE5C480AF081FE584BEA
:1037D0009B6993F8212012F0040240F09F80584D1D
:1037E00058482B6801680446406805EB830304EBE6
:1037F000810103F50279430001F10808019343D0E8
:10380000DFF850B1504BDFF85CA1012018F81250DE
:1038100018F8006019F8121019F8004005F0550C5E
:10382000770806F0550613F80CC09E5D01F0550EA2
:103830004CEA061649084FEA540C01F0550104F011
:1038400055040CF0550C6D0813F80EE0595C1C5D26
:1038500013F80CC00BF8126005F0550507F055077A
:1038600041EA0C114EEA041E0AF812E05D5D0AF806
:103870000010DF5D0199013245EA071591420BF80E
:10388000005000F10200C1D1304B31493148324D76
:103890000422FCF7EDFD314B314932480422FCF79C
:1038A000E7FD314B314932480422FCF7E1FD314B51
:1038B000314932480422FCF7DBFDDFF8D4C0286828
:1038C0009CF80070224A264900EBC71302F140061B
:1038D00014881C8054885C804C889C80043231F8A9
:1038E000044BDC80964203F10803F1D1092F11D17A
:1038F000234B00221B688CF800204FF4207198475E
:103900002B68204A204993420B6006BF1F4B2B6057
:103910002A604FE701378CF800704BE7064B039A9B
:103920001B689A4202D105B0BDE8F08FFFF730F96D
:103930008801012020E20108000B0020681F002000
:10394000783400205C320020200B0020343000202E
:10395000F024002030250020A00B00209C30002007
:10396000043100204431002068300020F22400207F
:1039700031250020D03000200631002045310020C4
:103980004432002030260020A40B0020302B0020E1
:1039900030300020000000000000000000000000A7
:1039A0002DE9F04F494A0168494B116085B000216B
:1039B0000E461B68474803930AF02AFD4FF4AF6197
:1039C000454B009641224548454DDFF84891454C0E
:1039D000DFF844A1444F0AF0F3F8444B444A18601E
:1039E000136BC5F804A043F480534FF002184FF452
:1039F0007A5B13632846C5E90298A5F800B0FCF786
:103A00007FFC2046C4E901A9C4F80C80A4F800B0EA
:103A1000FCF776FC05F13400C5E90EA9C5F8408035
:103A2000A5F834B0FCF76CFC324DC4F8408004F1CA
:103A30003400C4E90EA9A4F834B0FCF761FC3146A7
:103A400040F20C42384616F023FFDFF8D0902A4AA5
:103A50006E604FF400634FF080082E812A606B8106
:103A6000264CC5F80C80C7F80894FFF7F9FA2946E8
:103A70002348244DFFF724FB07F5027307F10802E2
:103A80004FF480711E48FFF763FB314620464FF428
:103A9000037216F0FDFE1C4B1C4AC4F80892083451
:103AA0001A611946C3E900641948C3E902850CF09C
:103AB00057FE074B039A1B689A4205D1144805B07C
:103AC000BDE8F04F0CF094BEFFF762F844320020DE
:103AD000000B0020681F0020A1370008781F00207D
:103AE000343000209C30002078340020741F0020E7
:103AF0000038024068340020E13600085C320020C3
:103B0000FC1E002041370008483200202C0308002A
:103B1000C40E0120000020410000FA45EFBEADDEDA
:103B200010B50B4C0B48236882B001930AF030FEAD
:103B300009480BF00DF8019A23689A4205D105480F
:103B400002B0BDE810400AF05BBEFFF721F800BFED
:103B5000000B0020B40B0020AC0B00200000000084
:103B600030B50F4C83B0236801930D4608B1FFF7C1
:103B700057FB4FF47A700B4900FB05F000F2E73079
:103B8000A1FB003080090AF073F8019A23689A4279
:103B900004D103B0BDE83040FFF72ABCFEF7F8FFC0
:103BA000000B0020D34D6210000000000000000058
:103BB0002DE9F0432DED028BDFF8FC80344BD8F873
:103BC000182034491B68344DDFED348A9FED348A68
:103BD000344E354F916183B00193202383F31188D4
:103BE0000AF0B6FB09F00CFB30480AF021F9286016
:103BF00009F026FB0AF0C4FBD8F80030434508D092
:103C0000D8F818209B6892689A4202D2284809F096
:103C100057FA4FF0000989F311882B681A8972BB93
:103C200030E0D3E9001202EB890393ED007A31F81A
:103C30001900C8EE877A09F10109FCEEE77A17EE60
:103C4000903A9CB22146FFF78BFF07EE904AF8EEC0
:103C5000E77A4FF47A7367EE887AFCEEE77A17EE2C
:103C6000902A90B203FB00F000F2E730A7FB00308F
:103C7000800909F0FDFF2B681A894A4502DD327878
:103C8000002ACED100230B4833700AF0E1FEA4E7EE
:103C9000000B002030E201088838002000007A4440
:103CA0006666A63FA80B0020D34D62108438002022
:103CB00040E20108AC0B0020880101200000000058
:103CC00010B50A4C0A4B22680A4884B04FF4FC71C4
:103CD000039200220092402209F072FF039A2368A7
:103CE0009A4201D104B010BDFEF752FF000B002034
:103CF000B13B0008903800200000000000000000E8
:103D000030B51E4C85B0236803930F2815D00E28BC
:103D100015D81B4A00EB400002EB800219480368EB
:103D200099B963B103992368174D012499422C7006
:103D300008BF114617D0FEF72BFF002AEED1039AD9
:103D400023689A42F7D105B030BD02290E4D04BF59
:103D50000021297063B103992368012099422870DA
:103D6000E9D10848114605B0BDE830400AF018B95D
:103D70000192FFF7D5FE019AEDE700BF000B00208E
:103D800050E7010884380020A80B00200000000044
:103D900030B5274C83B02368019301F079FA2549A7
:103DA00025480CF09DFD0122002123480CF030FE37
:103DB0004FF47A7009F05CFF01F0BAF901281DD0C8
:103DC00000F0FEFD0128054609D000F0C1FA0128E7
:103DD00020D0019A23689A4228D103B030BD174BF6
:103DE000187000F09DFD019A23689A421ED1294661
:103DF000284603B0BDE8304000F0B2BD019A236808
:103E00000E4900209A42087010D103B0BDE830403E
:103E100001F066B9019A2368084902209A420870A5
:103E200004D103B0BDE8304000F052BAFEF7B0FE56
:103E3000000B002090F40108900F0120C80B002017
:103E400030B50B4C0B4D236883B00193FFF7D8F8C6
:103E5000094B0199226809482B60914203F596436A
:103E6000036002D1002003B030BDFEF791FE00BF19
:103E7000000B002088D00020883A00208CD0002041
:103E800070B51C4C1C4E86B0336805930546204621
:103E90008DF810108DF811200CF0F2FB2378012B17
:103EA0000CD000233222CDE901322946009304AA26
:103EB000022320460CF00CFB054648B90D480CF0D7
:103EC000FFFB0020059A33689A4210D106B070BDFE
:103ED00001F016FA2378052B04D006480CF0F0FB0D
:103EE00028B2EFE701F0F4F901F0D2F9F5E7FEF7B7
:103EF0004FFE00BF080C0120000B00200000000056
:103F00002DE9F043224C234F87B03B6805930646CA
:103F100020468DF8101090460CF0B2FB2378012B50
:103F200023D00023B6B24FF03209CDE90139009316
:103F30003146012304AA20460CF0CAFA054648B1CE
:103F400001F0DEF92378052B1AD011480CF0B8FBEC
:103F500068B20EE0CDF8009042463146012320467B
:103F60000CF026FB05460028EAD109480CF0A8FB16
:103F70000020059A3B689A4207D107B0BDE8F0835C
:103F800001F0A6F901F084F9DFE7FEF701FE00BFBA
:103F9000080C0120000B00200000000000000000C1
:103FA00030B583B002AA124C002322F8083D054622
:103FB000236801930A212120FFF7A2FF28B1019A6B
:103FC00023689A4211D103B030BD0DF101020B21DB
:103FD0002120FFF795FF0028F1D19DF800209DF8E2
:103FE000013043EA02232B80E9E7FEF7D1FD00BF51
:103FF000000B002000000000000000000000000096
:104000002DE9F04F01F1B70505EB030BAB4F85B080
:10401000BBF5447F3C6803944FF0000128BFABF52B
:10402000447BB3F5207FDDF8389001901C4602F107
:104030000A0A8DF80A10ADF808109DF83C609DF84A
:10404000408000F20F81B9F5F07F00F20B81B5F5E9
:10405000207F00F20D81BAF5F07F00F20C81B045AF
:1040600000F2038102AA72212120FFF749FF10BB51
:104070009DF80820402E02F0CC028DF8082000F0B8
:10408000D980802E00F0CC80202E00F0B180B8F1D5
:10409000400F00F0B380B8F1800F00F0D580B8F188
:1040A000200F00F0B980C5F3C70217212120FFF7C8
:1040B000E7FE40B238B1039A3B689A4240F0E48090
:1040C00005B0BDE8F08FCBF3C70218212120FFF720
:1040D000D7FE40B20028EED14FEACB0303F03802FE
:1040E00005F007052A4332212120FFF7C9FE40B21F
:1040F0000028E0D1CAF3870219212120FFF7C0FE72
:1041000040B20028D7D1D144C9F387021A21212017
:10411000FFF7B6FE40B20028CDD14FEA890909F079
:104120000C090AF0030249EA020203212120FFF7E9
:10413000A7FE40B20028BED10DF109023E21212088
:10414000FFF7DEFE0028B6D19DF8093023F0070303
:1041500043F008030DF10A02732121208DF8093084
:10416000FFF7CEFE0028A6D19DF80A3003F0F80331
:1041700063F00F02402E8DF80A2000F09280802E0E
:1041800000F08480202E03D1B8F1200F00F094803D
:1041900004220C212120FFF773FE40B200288AD1AF
:1041A0009DF809203E2142F010022120FFF768FE11
:1041B00040B200287FF47FAF9DF8082072212120B3
:1041C000FFF75EFE40B200287FF475AF9DF80A202D
:1041D00073212120FFF754FE40B200287FF46BAF1B
:1041E000374B9DF804201A715E7183F8068062E7F0
:1041F000334AB8F1400F14807FF44DAF19F0010F2E
:104200003CD19DF808102E4841F010014FEA5902A8
:104210008DF80810428046E7294AA2F8029042E74A
:10422000A3072ED1264942F00202A4088DF80820E7
:104230000C802CE7E10724D4214942F001026408F4
:104240008DF808200C8022E719F0030F16D19DF895
:1042500008101B4841F020014FEA99028DF8081020
:10426000428020E76FF0070025E76FF0030022E7A8
:104270006FF001001FE76FF002001CE76FF006000F
:1042800019E76FF0050016E7FEF782FC9DF809209C
:1042900063F00D0342F002028DF80A308DF8092018
:1042A00076E79DF8092063F00E0342F001028DF8D5
:1042B0000A308DF809206BE700226AE7000B002026
:1042C00090D000200000000000000000000000006E
:1042D00010B51E4C86B02368059380221221212040
:1042E000FFF7CEFD0A2009F0C3FC80221121212016
:1042F000FFF7C6FD04223A212120FFF7C1FD042269
:1043000012212120FFF7BCFDD02240212120FFF700
:10431000B7FD022215212120FFF7B2FD8422B02132
:104320002120FFF7ADFD20237822CDE90133009253
:10433000A023B422F0210120FFF762FE059A236832
:104340009A4201D106B010BDFEF722FC000B0020FE
:1043500030B583B002A80D4D00242B6820F8064D1F
:104360000193FFF71DFE68B9BDF8020047F27364C0
:10437000001BB0FA80F04009019A2B689A4203D1E1
:1043800003B030BD2046F7E7FEF702FC000B00202B
:1043900030B583B002AA114C00210546236822F8EB
:1043A000081D6E20019300F0C3FF28B1019A236815
:1043B0009A4211D103B030BD0DF1010201216E20EE
:1043C00000F0B6FF0028F1D19DF800209DF80130E3
:1043D00043EA02232B80E9E7FEF7DAFB000B00201B
:1043E00030B50E4C83B005462368019301220321AA
:1043F0006E2000F0EDFF28B1019A23689A420BD19C
:1044000003B030BD2A4638216E2000F0E1FF0028BD
:10441000F2D1034B1D71EFE7FEF7BAFB000B002052
:1044200098D0002000000000000000000000000004
:104430002DE9F04F8DB0DFF80494DDF858C0D9F8BD
:1044400000400B9401F10806171D5C1E0CF1FF35AE
:10445000B3F5207F9DF85CA0009034443D449DF866
:1044600060B000F21082BCF5F07F00F20C82B6F56D
:10447000227F00F21182B7F5F27F00F21082A6428D
:1044800080F00482B4F5227F00F20082AF4280F017
:104490000082B5F5F27F00F2FC81BAF1400F00F026
:1044A000B581BAF1800F23D0BAF1200F00F0A181BD
:1044B0004FF00008CDF80480BBF1400F2ED0BBF1C7
:1044C000800F00F0CB81BBF1200F00F0B9810023F9
:1044D000CDE902330098FFF783FF002838D00B9A0C
:1044E000D9F800309A4240F0E3810DB0BDE8F08F7A
:1044F0009A0740F0D781CF4AB4084FEA4308661CB8
:10450000A2FB0818A2FB031204EB9304BBF1400FBB
:1045100006EBD203019306EBD808D0D11CF0010FB3
:1045200040F0C381C34B00987D084FEA4C026F1CDA
:10453000A3FB0212A3FB0C1307EB9303029307EBFD
:10454000920305EB5C050393FFF74AFF0028C6D1F1
:10455000012203216E2000F03BFF0028BFD1C6F3EB
:1045600007231A4650216E20049300F031FF0028E3
:10457000B5D1F3B21A4651216E20059300F028FF01
:104580000028ACD1C7F307231A4652216E200693A8
:1045900000F01EFF0028A2D1FBB21A4653216E2064
:1045A000079300F015FF002899D1C4F30722542186
:1045B0006E2000F00DFF002891D1E3B21A4655217C
:1045C0006E20089300F004FF002888D1C5F307226D
:1045D00056216E2000F0FCFE002880D1EBB21A4676
:1045E00057216E20099300F0F3FE00287FF477AF87
:1045F000524680216E2000F0EBFE00287FF46FAF62
:104600005A4681216E2000F0E3FE00287FF467AF58
:10461000024660216E2000F0DBFE00287FF45FAFD1
:104620000C2261216E2000F0D3FE00287FF457AFEA
:10463000012262216E2000F0CBFE00287FF44FAFF4
:10464000EC2263216E2000F0C3FE00287FF447AF08
:10465000009B0D2B00F04081BAF1400F00F0468125
:10466000BAF1800F00F02F81BAF1200F00F0228103
:10467000012282216E2000F0ABFE00287FF42FAFD4
:10468000022203216E2000F0A3FE00287FF427AF52
:10469000049A10216E2000F09BFE00287FF41FAFCB
:1046A000059A11216E2000F093FE00287FF417AFC9
:1046B000069A12216E2000F08BFE00287FF40FAFC7
:1046C000079A13216E2000F083FE00287FF407AFC5
:1046D000A21BC2F3072214216E2000F079FE0028ED
:1046E0007FF4FDAE089B059A9A1AD2B215216E206E
:1046F00000F06EFE00287FF4F2AEEA1BC2F3072240
:1047000016216E2000F064FE00287FF4E8AE099BBD
:10471000079A9A1AD2B217216E2000F059FE00288B
:104720007FF4DDAE019B1821C3F307226E2000F059
:104730004FFE00287FF4D3AE9DF8043004931A4650
:1047400019216E2000F044FE00287FF4C8AE029BC1
:104750001A21C3F307226E2000F03AFE00287FF4EE
:10476000BEAE9DF8083005931A461B216E2000F05E
:104770002FFE00287FF4B3AE019BA8EB0302C2F327
:1047800007221C216E2000F023FE00287FF4A7AE34
:10479000049BA8EB0302D2B21D216E2000F018FE8C
:1047A00000287FF49CAEDDE902239A1AC2F30722A7
:1047B0001E216E2000F00CFE00287FF490AE039BBB
:1047C000059A9A1AD2B21F216E2000F001FE00282D
:1047D0007FF485AE184B9DF800201A710134013525
:1047E000A61BEF1B1E805F8083F805A083F806B030
:1047F00075E6104A4FEA4308A2FB031306EB530386
:10480000A2FB0828019306EB580855E6D90749D4BE
:10481000084A74084FEA4308661CA2FB0818A2FB6A
:10482000031204EB530406EB9203019306EB980882
:1048300042E600BFABAAAAAA98D00020000B002035
:10484000334A4FEA4C03A2FB0C1CA2FB032307EBE9
:10485000530307EB5C02029203933BE61CF0030F49
:1048600023D12B4BBD084FEA4C026F1CA3FB021255
:10487000A3FB0C1307EBD303029307EBD20305EB67
:104880009C05039326E66FF0070028E66FF003000F
:1048900025E66FF0040022E66FF001001FE66FF0DE
:1048A00002001CE66FF0050019E66FF0060016E640
:1048B000FEF76EF9002268216E2000F089FD0028C5
:1048C0003FF4D6AE0BE6032268216E2000F080FD97
:1048D00000283FF4CDAE02E6BAF1400FF3D0BAF1B2
:1048E000800F0CD0BAF1200F7FF4C2AE01226821F4
:1048F0006E2000F06DFD00283FF4BAAEEFE5072210
:1049000068216E2000F064FD00283FF4B1AEE6E5BA
:10491000ABAAAAAA000000000000000000000000EE
:1049200030B50B4C87B02023782225680092CDE962
:104930000133B422A023F02102200595FFF778FD72
:10494000059A23689A4201D107B030BDFEF720F9DD
:10495000000B00200000000000000000000000002C
:1049600070B5134C82B006460D46236801930022B1
:1049700003216E2000F02CFD90B9012E01992368CF
:104980000CBFB5223522012D08BF42F040029942EA
:104990000CD190216E2002B0BDE8704000F018BD2F
:1049A000019A23689A4201D102B070BDFEF7F0F877
:1049B000000B0020000000000000000000000000CC
:1049C00030B583B002A80D4D00242B6820F8064DA9
:1049D0000193FFF7DDFC68B9BDF8020046F2300430
:1049E000001BB0FA80F04009019A2B689A4203D16B
:1049F00003B030BD2046F7E7FEF7CAF8000B0020F1
:104A000030B583B002AA114C00210546236822F874
:104A1000081D6E20019300F08BFC28B1019A2368D9
:104A20009A4211D103B030BD0DF1010201216E2077
:104A300000F07EFC0028F1D19DF800209DF80130A7
:104A400043EA02232B80E9E7FEF7A2F8000B0020DF
:104A500070B5274D82B02B680193064601220321D1
:104A60006E2000F0B5FC044630B1019A2B689A42E2
:104A700020463AD102B070BD32464E216E2000F081
:104A8000A7FC04460028F0D1442E07D00246B721E7
:104A90006E2000F09DFCB8B10446E6E70122B72184
:104AA0006E2000F095FC0028F6D1224603216E20EE
:104AB00000F08EFC0028EFD1032211216E2000F0BF
:104AC00087FC78B10446D0E7224603216E2000F02F
:104AD0007FFC0028E0D10A2211216E2000F078FC32
:104AE0000028D9D1034B1E71BFE7FEF751F800BF74
:104AF000000B0020A0D000200000000000000000FB
:104B00002DE9F04F8FB0DFF80084DDF860C0D8F8F1
:104B100000400D940CF1FF355C1EB3F5207F9DF82D
:104B200064909DF868B00C44154400F21282BCF504
:104B3000F07F00F20E82B1F5207F0E4600F2128265
:104B4000B2F5F07F174600F21082A14280F0048295
:104B5000B4F5207F00F20082AA4280F00082B5F511
:104B6000F07F00F2FC81B9F1400F824600F0B08185
:104B7000B9F1800F23D0B9F1200F00F09C81002300
:104B8000CDE90033BBF1400F2FD0BBF1800F00F017
:104B9000CB81BBF1200F00F0B9810023CDE90233B6
:104BA000002203216E2000F013FCA0B30D9AD8F868
:104BB00000309A4240F0E2810FB0BDE8F08F9A07D2
:104BC00040F0D681CC4A8C085900661CA2FB01013A
:104BD000A2FB030204EB930406EBD2030093BBF1A8
:104BE000400F06EBD1030193CFD11CF0010F40F031
:104BF000C281C14B7D084FEA4C026F1CA3FB02121D
:104C0000A3FB0C1307EB9303029307EB920305EB53
:104C10005C050393C4E702465B216E2000F0D8FBDD
:104C20000028C3D15046FFF713FF0028BED102462B
:104C300003216E2000F0CCFB0028B7D1C6F3072378
:104C40001A4608216E20049300F0C2FB0028ADD163
:104C5000F3B21A4609216E20059300F0B9FB002833
:104C6000A4D1C7F307231A460A216E20069300F049
:104C7000AFFB00289AD1FBB21A460B216E20079396
:104C800000F0A6FB002891D1C4F307231A460C219B
:104C90006E20089300F09CFB002887D1E3B21A46EF
:104CA0000D216E20099300F093FB00287FF47EAF66
:104CB000C5F307231A460E216E200A9300F088FBE5
:104CC00000287FF473AFEBB21A460F216E200B93CE
:104CD00000F07EFB00287FF469AF049A35216E2036
:104CE00000F076FB00287FF461AF059A36216E2034
:104CF00000F06EFB00287FF459AF089A37216E2030
:104D000000F066FB00287FF451AF099A38216E202D
:104D100000F05EFB00287FF449AF069A39216E202F
:104D200000F056FB00287FF441AF079A3A216E202D
:104D300000F04EFB00287FF439AF0A9A3B216E2029
:104D400000F046FB00287FF431AF0B9A3C216E2027
:104D500000F03EFB00287FF429AF009B3D21C3F308
:104D600007226E2000F034FB00287FF41FAF9DF86F
:104D700000203E216E2000F02BFB00287FF416AFB0
:104D8000019B3F21C3F307226E2000F021FB002886
:104D90007FF40CAF9DF8042040216E2000F018FB3A
:104DA00000287FF403AF029B4121C3F307226E204A
:104DB00000F00EFB00287FF4F9AE9DF80820422198
:104DC0006E2000F005FB00287FF4F0AE039B43212A
:104DD000C3F307226E2000F0FBFA00287FF4E6AE52
:104DE0009DF80C2044216E2000F0F2FA00287FF498
:104DF000DDAE012203216E2000F0EAFA00287FF4E4
:104E0000D5AE4A4693216E2000F0E2FA00287FF4E6
:104E1000CDAE5A4694216E2000F0DAFA00287FF4D5
:104E2000C5AE012203216E2000F0D2FA00287FF4E3
:104E3000BDAE0134A31B07EE103ADFED307AB8EEB9
:104E4000477ABAF1440F77EEC77A00F09980B0EE56
:104E5000006AF2EE006AE7EE066A77EEA77AB0EE35
:104E6000667A67EE877ADFED266A87EEA67AFCEE31
:104E7000C77ACDED007A009B9521C3F307226E20FF
:104E800000F0A6FA00287FF491AE9DF8002096214C
:104E90006E2000F09DFA00287FF488AE194B013592
:104EA000EF1BA41B5F801C8083F804A083F805908F
:104EB00083F806B07AE610495A00A1FB030306EB1B
:104EC0005303A1FB0212009306EB5203019359E630
:104ED000D9074DD4084A74085900661CA2FB010189
:104EE000A2FB030204EB530406EB9203009306EBD0
:104EF0009103019346E600BFABAAAAAA0000224490
:104F00000000A344A0D00020000B0020244A4FEA58
:104F10004C03A2FB0C1CA2FB032307EB530307EB80
:104F20005C02029203933BE61CF0030F23D11C4B5F
:104F3000BD084FEA4C026F1CA3FB0212A3FB0C132B
:104F400007EBD303029307EBD20305EB9C05039316
:104F500026E66FF0070029E66FF0030026E66FF003
:104F6000040023E66FF0010020E66FF002001DE66A
:104F70006FF005001AE66FF0060017E6FDF708FE71
:104F8000F2EE006A37EE267ADFED066A67EE277AE0
:104F900087EEA67AFCEEC77ACDED007A6BE700BF0C
:104FA000ABAAAAAA000024440000000000000000F0
:104FB00030B5164C83B023680193054600230222C6
:104FC00003216E208DF8033000F002FA28B1019A17
:104FD00023689A4218D103B030BD0DF103020421B9
:104FE0006E2000F0A5F90028F1D19DF80320012DD5
:104FF0000CBF02F0FB0242F0040204216E208DF887
:10500000032000F0E5F9E2E7FDF7C2FD000B002008
:10501000F0B51A4C83B005462368019300200E4674
:105020001746FFF7C5FF28B1019A23689A4222D19B
:1050300003B0F0BD024603216E2000F0C9F900283C
:10504000F2D12A4623216E2000F0C2F90028EBD1CC
:10505000324624216E2000F0BBF90028E4D1019AE9
:1050600023689A4207D13A4625216E2003B0BDE855
:10507000F04000F0ADB9FDF78BFD00BF000B002044
:1050800030B5164C83B023680193054600230222F5
:1050900003216E208DF8033000F09AF928B1019AAF
:1050A00023689A4218D103B030BD0DF103020421E8
:1050B0006E2000F03DF90028F1D19DF80320012D6C
:1050C0000CBF02F0FC0242F0030204216E208DF8B6
:1050D000032000F07DF9E2E7FDF75AFD000B002008
:1050E00030B5114C87B020237822F021256800923A
:1050F000CDE90133B422A02302200595FFF700FD7E
:105100000020FFF755FF502240214620FFF780FF87
:10511000059A23689A4205D1012007B0BDE83040C6
:10512000FFF7AEBFFDF734FD000B002000000000CC
:1051300030B583B002A80D4D00242B6820F8064D31
:105140000193FFF75DFC68B9BDF8020048F2300436
:10515000001BB0FA80F04009019A2B689A4203D1F3
:1051600003B030BD2046F7E7FDF712FD000B00202D
:1051700010B5164C82B02368019303291AD00F2969
:1051800005D0019A23689A421DD102B010BD202398
:1051900083F3118809F00CF908F072F801210C482A
:1051A00009F0C6FD08F08CF809F01AF9002383F322
:1051B0001188E6E7202383F3118809F0F9F808F055
:1051C0005FF80221EBE7FDF7E3FC00BF000B0020D6
:1051D000A8D0002000000000000000000000000037
:1051E00000B5094A094B11681B6083B00191019910
:1051F0001268914206D10649064803B05DF804EBF7
:105200000AF0CEBEFDF7C4FC000B0020A8D00020A1
:10521000D0F4010884090120000000000000000013
:1052200070B5164E16483368154D82B005224FF4FE
:105230008071019310F05CF920246B6983F4807312
:105240006B61012008F014FD631E13F0FF04F4D11C
:105250004FF4807140F206222983094810F048F982
:10526000019A33689A4206D10649074802B0BDE860
:1052700070400BF085B8FDF78BFC00BF000B0020E1
:105280000004024090F50108080C01200000000015
:1052900000B50C4A0C4B1278196883B0012A0191B1
:1052A000019A1B6804D09A4209D103B05DF804FB4F
:1052B0009A4204D103B05DF804EBFFF7B1BFFDF7EC
:1052C00067FC00BF080C0120000B0020000000005C
:1052D00000B5084B83B01A680192019A1B689A4284
:1052E00005D1054803B05DF804EB0BF091B8FDF76C
:1052F0004FFC00BF000B0020080C01200000000044
:1053000010B5084C0848236882B001930BF0C8F828
:10531000019A236805499A42086001D102B010BD84
:10532000FDF736FC000B0020080C0120ACD000205B
:105330002DE9F041224C234E88B0002335688DF8CA
:105340001830804620468DF81410174607950BF04C
:1053500097F92378012B0CD00420012306AACDE96C
:1053600001300092414605AA20460BF0B1F80546EF
:1053700068B913480BF0A4F99DF818303B70002071
:10538000079A33689A4218D108B0BDE8F0812046E8
:105390000BF086F823780C4A052B106004D00848DF
:1053A0000BF08EF968B2EBE720460BF031F823786A
:1053B000012BF4D1FFF734FFF1E7FDF7E9FB00BF64
:1053C000080C0120000B0020ACD0002000000000E1
:1053D000F0B5214C214E89B033680793074600256C
:1053E00020468DF818108DF819208DF814500BF008
:1053F00047F92378012B0CD0042205AB01950292CA
:1054000000933946022306AA20460BF061F80546B0
:1054100048B911480BF054F90020079A33689A42B2
:1054200017D109B0F0BD20460BF03AF823780C4AAA
:10543000052B106004D008480BF042F968B2ECE785
:1054400020460AF0E5FF2378012BF4D1FFF7E8FEB0
:10545000F1E7FDF79DFB00BF080C0120000B0020C9
:10546000ACD00020000000000000000000000000A0
:105470002DE9F0431F4C204E89B035688DF8171088
:10548000074620469046994607950BF0F9F8217893
:1054900001290CD004230293CDE900893946012368
:1054A0000DF1170220460BF013F8054650B91148CC
:1054B0000BF006F90020079A33689A4218D109B018
:1054C000BDE8F08320460AF0EBFF23780B4A052B5A
:1054D000106004D007480BF0F3F868B2EBE7204601
:1054E0000AF096FF2378012BF4D1FFF799FEF1E73C
:1054F000FDF74EFB080C0120000B0020ACD0002073
:105500002DE9F043484C494BA2694949916183B068
:105510001B6848494848019306F0BAFADFF81C9125
:10552000DFF81C810746202686F3118808F010FF5B
:1055300007F066FEA56A07F083FE08F021FF2368E6
:10554000A34207D0A2699B6892689A4202D2484659
:1055500007F0B6FD002383F311880322694638461D
:1055600006F0FEFA9DF80230013B202B18D8DFE848
:1055700003F04A52423A332B241D111717331717E1
:10558000172B3A1717171717171717171717171774
:1055900017521D00404600F063FC002000F078FC2C
:1055A00005F1C801284608F0A3FBBDE7404600F01E
:1055B00057FC404600F06CFCF2E7002000F050FC85
:1055C000404600F065FCEBE74FF4167000F048FC35
:1055D000404600F05DFCE3E7002000F041FC0020C5
:1055E00000F056FCDCE7404600F03AFC4FF4167041
:1055F00000F04EFCD4E74FF4167000F031FC0020B0
:1056000000F046FCCCE7002000F02AFC4FF41670B6
:1056100000F03EFCC4E74FF4167000F021FC4FF49C
:10562000167000F035FCBBE788010120000B00205C
:10563000A0F5010800F60108C01E0020E0F50108F1
:10564000A8FDFFFF000000000000000000000000B7
:1056500030B5174B4478174A1B5D156843FA01F1C2
:1056600083B001F003018C42019518D002294170EA
:1056700009D001290DD1D0E903135B0001330131B9
:10568000C0E9031305E0D0E9033149000133C0E963
:10569000033101991368994208D103B030BD012349
:1056A00000214370C0E903334160F2E7FDF770FA6F
:1056B00010F60108000B00200000000000000000B0
:1056C00080B5414B414A9B6941499961ACB0022385
:1056D000126840482B9205A91A4609F071FA03ADE9
:1056E0000FAB0324002719462A4614A80094CDE9DD
:1056F0000F330124384B8DF82940CDE90355CDE90E
:105700000D440B97CDE91177139706F069F914A9A9
:10571000324A3348DFF8D0802F4C324E06F088F9F9
:105720003D46022009F034FB05A809F091FA3369DF
:105730000C9AC3F3C003934240F279305FFA83FCC2
:105740001CD0D8F80C100C934A6A0B9B4F62D31AEA
:10575000A3F5DE728242A3F236534FEA4C010AA847
:105760000AD9B3F55E7F0AA84FF0010326D8BCF131
:10577000000F14BF06210421FFF76AFF0D9B164995
:105780000E2B4FF0030214A8CBD1DDF838C00D95D5
:105790006FEA0C035B090CF03F0E23F07F0343EA32
:1057A0000E03CCF3C02ECCF3841CA37084F800E06D
:1057B00084F801C00E9506F093F9B2E78DF8293010
:1057C000CDE90D330B95ACE788010120000B0020DB
:1057D000C0F50108A8D00020B0D0002000F60108D4
:1057E000C01E0020000C02401C0F01200000000021
:1057F00030B5134C13492368134885B00025039333
:105800000AF046FC4FF6FF710F480AF0F1FC0F4B0F
:10581000009540224FF41E710D4808F0D1F90D4B50
:10582000009540220C484FF4FC7108F0C9F9039A26
:1058300023689A4201D105B030BDFDF7A9F900BF38
:10584000000B0020F0F501081C0F0120C1560008D4
:10585000B8D000200155000830D30020000000001F
:105860002DE9F043254E83B034680194042A9DF855
:105870002890144605460F46984639D9B9F1000FCD
:1058800014BF00224FF08052640002EB0863013C19
:105890001C4405F00F0527F01F07202383F3118810
:1058A00008F056FD3D4307F0ABFC154B1035DD60AD
:1058B0001C6107F0C5FC08F063FD124B1A689A42A0
:1058C00004D0996993688A689A420DD3002383F3C0
:1058D0001188BFF36F8FBFF34F8F019A33689A42DD
:1058E0000AD103B0BDE8F083074807F0E9FBEDE714
:1058F000064807F0E5FBC1E7FDF74AF9000B002079
:1059000090ED00E088010120A0F6010880F6010872
:1059100030B5224D224C2B68224A85B00393636830
:1059200043F004036360536A43F4803353622023DB
:1059300083F3118808F00CFD07F062FC17221A4B64
:10594000E260236107F07CFC08F01AFD174B1A682F
:105950009A4204D0996993688A689A4218D30020C1
:1059600080F31188BFF36F8FBFF34F8F03231D2286
:1059700000904FF00051FFF773FF094A536843F05E
:1059800001035360039A2B689A4205D105B030BDDC
:10599000074807F095FBE2E7FDF7FAF8000B002057
:1059A00090ED00E000ED00E009000010880101200A
:1059B000A0F6010800000000000000000000000048
:1059C00070B51A4D1A4C1B4E0FCD0FC49EB02A68ED
:1059D000336822801D93EFF30981682203A8FCF746
:1059E000FFF9154B9D6AAA0714D4EB0708D5124B93
:1059F00008995B6B114A00910D48802114F098FFC3
:105A00001D9A33689A420FD109481EB0BDE8704014
:105A100007F056BB099A5B6B0092A4F11000084A8C
:105A2000802114F085FFE0E7FDF7B2F864F6010885
:105A300028D50020000B002000ED00E040F6010812
:105A400020F6010800000000000000000000000037
:105A500000B51F4B0278196883B00191E2B11D4A6D
:105A60004FF4005111834278EAB11A4A4FF4805141
:105A700011838278F2B1174A4FF480411183C278C2
:105A8000FAB9144A4FF400415183019A1B689A42B3
:105A90001CD103B05DF804FB0E4A4FF40051518352
:105AA0004278002AE1D10B4A4FF480515183827829
:105AB000002AE0D1074A4FF480415183C278002A7E
:105AC000DFD0044A4FF400411183DEE7FDF760F8B0
:105AD000000B002000100240000000000000000049
